:020000040800F2
:10000000000002200138000851380008513800086B
:10001000513800085138000851380008000000002D
:10002000000000000000000000000000513800083F
:100030005138000800000000513800080937000856
:10004000513800085138000851380008513800086C
:10005000513800085138000851380008513800085C
:100060005138000851380008513800080D37000891
:100070001937000851380008513800085138000875
:1000800051380008513800085138000800000000BD
:1000900000000000000000000000000051380008CF
:1000A000513800085138000851380008513800080C
:1000B0005138000851380008513800082537000829
:1000C000313700085138000851380008513800080D
:1000D000513800085138000851380008000000006D
:1000E000513800085138000851380008000000005D
:1000F000000000000000000000000000513800086F
:10010000000000005138000851380008513800083C
:1001100000000000000000000000000000000000DF
:10012000513800085138000851380008513800088B
:10013000513800080000000000000000000000002E
:10014000000000000000000000000000513800081E
:10015000513800085138000851380008513800085B
:10016000513800085138000800000000000000006D
:10017000000000000000000000000000000000007F
:1001800000000000513800080000000000000000DE
:08019000513800085138000845
:1001A00010B5054C237833B9044B13B10448AFF3B1
:1001B00000800123237010BDDC010020000000003E
:1001C000045F000808B5034B1BB103490348AFF3B4
:1001D000008008BD00000000E0010020045F00086E
:1001E00081F0004102E000BF83F0004330B54FEAE8
:1001F00041044FEA430594EA050F08BF90EA020F55
:100200001FBF54EA000C55EA020C7FEA645C7FEAE7
:10021000655C00F0E2804FEA5454D4EB5555B8BF0A
:100220006D420CDD2C4480EA020281EA030382EA7B
:10023000000083EA010180EA020281EA0303362D0D
:1002400088BF30BD11F0004F4FEA01314FF4801CE0
:100250004CEA113102D0404261EB410113F0004FF2
:100260004FEA03334CEA133302D0524263EB4303A9
:1002700094EA050F00F0A780A4F10104D5F1200E47
:100280000DDB02FA0EFC22FA05F2801841F10001A2
:1002900003FA0EF2801843FA05F359410EE0A5F176
:1002A00020050EF1200E012A03FA0EFC28BF4CF0A7
:1002B000020C43FA05F3C01851EBE37101F000455D
:1002C00007D54FF0000EDCF1000C7EEB00006EEB6A
:1002D0000101B1F5801F1BD3B1F5001F0CD34908F4
:1002E0005FEA30004FEA3C0C04F101044FEA44524B
:1002F00012F5800F80F09A80BCF1004F08BF5FEAD2
:10030000500C50F1000041EB045141EA050130BDB1
:100310005FEA4C0C404141EB010111F4801FA4F154
:100320000104E9D191F0000F04BF01460020B1FAA9
:1003300081F308BF2033A3F10B03B3F120020CDAE1
:100340000C3208DD02F1140CC2F10C0201FA0CF0BF
:1003500021FA02F10CE002F11402D8BFC2F1200C24
:1003600001FA02F120FA0CFCDCBF41EA0C019040DA
:10037000E41AA2BF01EB0451294330BD6FEA040423
:100380001F3C1CDA0C340EDC04F11404C4F120020E
:1003900020FA04F001FA02F340EA030021FA04F320
:1003A00045EA030130BDC4F10C04C4F1200220FA77
:1003B00002F001FA04F340EA0300294630BD21FAB5
:1003C00004F0294630BD94F0000F83F4801306BF7B
:1003D00081F480110134013D4EE77FEA645C18BF6F
:1003E0007FEA655C29D094EA050F08BF90EA020F06
:1003F00005D054EA000C04BF1946104630BD91EAFE
:10040000030F1EBF0021002030BD5FEA545C05D100
:100410004000494128BF41F0004130BD14F580043F
:100420003CBF01F5801130BD01F0004545F0FE41B3
:1004300041F470014FF0000030BD7FEA645C1ABFE8
:10044000194610467FEA655C1CBF0B46024650EA1F
:10045000013406BF52EA033591EA030F41F400214B
:1004600030BD00BF90F0000F04BF0021704730B5D1
:100470004FF4806404F132044FF000054FF00001A6
:1004800050E700BF90F0000F04BF0021704730B567
:100490004FF4806404F1320410F0004548BF40423C
:1004A0004FF000013EE700BF42004FEAE2014FEA91
:1004B00031014FEA02701FBF12F07F4393F07F4F6C
:1004C00081F06051704732F07F4208BF704793F06F
:1004D0007F4F04BF41F40021704730B54FF4607482
:1004E00001F0004521F000411CE700BF50EA010285
:1004F00008BF704730B54FF000050AE050EA01022E
:1005000008BF704730B511F0004502D5404261EB9D
:1005100041014FF4806404F132045FEA915C3FF4DE
:10052000D8AE4FF003025FEADC0C18BF03325FEA7B
:10053000DC0C18BF033202EBDC02C2F1200300FA2C
:1005400003FC20FA02F001FA03FE40EA0E0021FA51
:1005500002F11444BDE600BF53B94AB9002908BFEF
:1005600000281CBF4FF0FF314FF0FF3000F072B990
:10057000ADF1080C6DE904CE00F006F8DDF804E0FA
:10058000DDE9022304B070472DE9F047089E0446D8
:100590008846002B4BD18A42154667D9B2FA82F2BF
:1005A0004AB1C2F1200701FA02F320FA07F7954099
:1005B00047EA030894404FEA154E230CB8FBFEF7B8
:1005C0001FFA85FC0EFB178843EA084307FB0CF172
:1005D000994209D9EB1807F1FF3080F01B8199424D
:1005E00040F21881023F2B445B1AA4B2B3FBFEF029
:1005F0000EFB103344EA034400FB0CFCA44509D96C
:100600002C1900F1FF3380F00781A44540F20481EA
:1006100002382C4440EA0740A4EB0C0400271EB12A
:10062000D4400023C6E900433946BDE8F0878B4239
:1006300009D9002E00F0EB800027C6E900013846FA
:100640003946BDE8F087B3FA83F7002F47D18B42D4
:1006500002D3824200F2FA80841A61EB0303012084
:100660009846002EE0D0C6E90048DDE702B9FFDE7B
:10067000B2FA82F2002A40F08F80491B4FEA154EF1
:100680001FFA85F80127B1FBFEFC230C0EFB1C11A1
:1006900043EA014308FB0CF1994207D9EB180CF12E
:1006A000FF3002D2994200F2CD808446591AA3B29B
:1006B000B1FBFEF00EFB101443EA044408FB00F803
:1006C000A04507D92C1900F1FF3302D2A04500F252
:1006D000B6801846A4EB080440EA0C409FE7C7F137
:1006E000200CBB4022FA0CFE4EEA030E01FA07F47E
:1006F00020FA0CF521FA0CF34FEA1E482543B3FB10
:10070000F8F92C0C08FB19331FFA8EFA44EA03435C
:1007100009FB0AF49C4202FA07F200FA07F10BD92E
:100720001EEB030309F1FF3080F087809C4240F20A
:100730008480A9F1020973441B1BADB2B3FBF8F02E
:1007400008FB103345EA034400FB0AFAA24508D926
:100750001EEB040400F1FF336BD2A24569D90238C5
:10076000744440EA0940A0FB0289A4EB0A044C450A
:10077000C2464B4654D351D0002E69D0B1EB0A0586
:1007800064EB030404FA0CFCFD40FC404CEA050554
:10079000C6E90054002747E7C2F1200320FA03F717
:1007A000954001FA02F021FA03F34FEA154E38435F
:1007B000010CB3FBFEF71FFA85F80EFB173341EA75
:1007C000034107FB08F38B4204FA02F407D96918C6
:1007D00007F1FF3C2FD28B422DD9023F2944CB1A7F
:1007E00081B2B3FBFEF00EFB103341EA034100FB84
:1007F00008F38B4207D9691800F1FF3C17D28B42EE
:1008000015D902382944C91A40EA07473BE7374659
:10081000304609E70746E7E61846FBE64145ABD216
:10082000B8EB020A69EB0E0201381346A4E76046F2
:10083000E9E7184695E76746D1E781467CE7023845
:100840002C4447E7ACF1020C2B442FE7384608E76D
:100850003746E9E6704700BF034613F8012B002A2C
:10086000FBD1181A0138704700000000000000009A
:1008700001F0FF01102A2BDB10F0070F08D010F851
:10088000013B013A8B422DD010F0070F42B3F6D155
:10089000F0B441EA012141EA014122F007047FF06E
:1008A00000070023F0E80256083C85EA010586EAC5
:1008B000010685FA47F5A3FA87F586FA47F6A5FA01
:1008C00087F68EB9EED1F0BC01F0FF0102F007020D
:1008D00032B110F8013B013A83EA010313B1F8D1B8
:1008E0000020704701387047002D06BF3546033899
:1008F000073815F0010F07D1013015F4807F02BFD2
:10090000013015F4C03F0130F0BC0138704700BF22
:1009100070B54FF0FF0C4CF4E06C1CEA11541DBF95
:100920001CEA135594EA0C0F95EA0C0F00F0DEF860
:100930002C4481EA030621EA4C5123EA4C5350EA45
:10094000013518BF52EA033541F4801143F4801396
:1009500038D0A0FB02CE4FF00005E1FB02E506F027
:100960000042E0FB03E54FF00006E1FB03569CF07C
:10097000000F18BF4EF0010EA4F1FF04B6F5007F82
:1009800064F5407404D25FEA4E0E6D4146EB0606F4
:1009900042EAC62141EA55514FEAC52040EA5E507D
:1009A0004FEACE2EB4F1FD0C88BFBCF5E06F1ED827
:1009B000BEF1004F08BF5FEA500E50F1000041EB5E
:1009C000045170BD06F0004646EA010140EA02000B
:1009D00081EA0301B4EB5C04C2BFD4EB0C0541EA2D
:1009E000045170BD41F480114FF0000E013C00F342
:1009F000AB8014F1360FDEBF002001F0004170BD66
:100A0000C4F10004203C35DA0C341BDC04F114047E
:100A1000C4F1200500FA05F320FA04F001FA05F20A
:100A200040EA020001F0004221F0004110EBD370D7
:100A300021FA04F642EB06015EEA430E08BF20EA03
:100A4000D37070BDC4F10C04C4F1200500FA04F3A6
:100A500020FA05F001FA04F240EA020001F0004138
:100A600010EBD37041F100015EEA430E08BF20EAAB
:100A7000D37070BDC4F1200500FA05F24EEA020EF3
:100A800020FA04F301FA05F243EA020321FA04F022
:100A900001F0004121FA04F220EA020000EBD370D9
:100AA0005EEA430E08BF20EAD37070BD94F0000FD9
:100AB0000FD101F00046400041EB010111F4801F0D
:100AC00008BF013CF7D041EA060195F0000F18BFBE
:100AD000704703F00046520043EB030313F4801FFA
:100AE00008BF013DF7D043EA0603704794EA0C0FB4
:100AF0000CEA135518BF95EA0C0F0CD050EA4106CA
:100B000018BF52EA4306D1D181EA030101F0004146
:100B10004FF0000070BD50EA410606BF104619466E
:100B200052EA430619D094EA0C0F02D150EA01367A
:100B300013D195EA0C0F05D152EA03361CBF1046BB
:100B400019460AD181EA030101F0004141F0FE415A
:100B500041F470014FF0000070BD41F0FE4141F4DE
:100B6000780170BD70B54FF0FF0C4CF4E06C1CEADE
:100B700011541DBF1CEA135594EA0C0F95EA0C0F93
:100B800000F0A7F8A4EB050481EA030E52EA03354E
:100B90004FEA013100F088804FEA03334FF080556F
:100BA00045EA131343EA12634FEA022245EA11159C
:100BB00045EA10654FEA00260EF000419D4208BF4D
:100BC000964244F1FD0404F5407402D25B084FEAFA
:100BD0003202B61A65EB03055B084FEA32024FF4A6
:100BE00080104FF4002CB6EB020E75EB030E22BF03
:100BF000B61A754640EA0C005B084FEA3202B6EBC3
:100C0000020E75EB030E22BFB61A754640EA5C0071
:100C10005B084FEA3202B6EB020E75EB030E22BF01
:100C2000B61A754640EA9C005B084FEA3202B6EB02
:100C3000020E75EB030E22BFB61A754640EADC00C1
:100C400055EA060E18D04FEA051545EA16754FEA23
:100C500006164FEAC30343EA52734FEAC2025FEA41
:100C60001C1CC0D111F4801F0BD141EA00014FF0D0
:100C700000004FF0004CB6E711F4801F04BF0143A1
:100C80000020B4F1FD0C88BFBCF5E06F3FF6AFAEBD
:100C9000B5EB030C04BFB6EB020C5FEA500C50F14D
:100CA000000041EB045170BD0EF0004E4EEA1131D0
:100CB00014EB5C04C2BFD4EB0C0541EA045170BDD7
:100CC00041F480114FF0000E013C90E645EA060E1B
:100CD0008DE60CEA135594EA0C0F08BF95EA0C0F49
:100CE0003FF43BAF94EA0C0F0AD150EA01347FF491
:100CF00034AF95EA0C0F7FF425AF104619462CE768
:100D000095EA0C0F06D152EA03353FF4FDAE1046CA
:100D1000194622E750EA410618BF52EA43067FF41B
:100D2000C5AE50EA41047FF40DAF52EA43057FF4AB
:100D3000EBAE12E74FF0FF3C06E000BF4FF0010CB6
:100D400002E000BF4FF0010C4DF804CD4FEA410C1A
:100D50007FEA6C5C4FEA430C18BF7FEA6C5C1BD0E7
:100D600001B050EA410C0CBF52EA430C91EA030F68
:100D700002BF90EA020F0020704710F1000F91EAC5
:100D8000030F58BF994208BF90422CBFD8176FEA93
:100D9000E37040F0010070474FEA410C7FEA6C5C61
:100DA00002D150EA013C07D14FEA430C7FEA6C5C68
:100DB000D6D152EA033CD3D05DF8040B704700BF94
:100DC0008446104662468C461946634600E000BFE2
:100DD00001B5FFF7B7FF002848BF10F1000F01BDB4
:100DE0004DF808EDFFF7F4FF0CBF012000205DF87F
:100DF00008FB00BF4DF808EDFFF7EAFF34BF012004
:100E000000205DF808FB00BF4DF808EDFFF7E0FF9C
:100E100094BF012000205DF808FB00BF4DF808EDED
:100E2000FFF7CEFF94BF012000205DF808FB00BF54
:100E30004DF808EDFFF7C4FF34BF012000205DF836
:100E400008FB00BF4FEA410C7FEA6C5C02D150EA1C
:100E5000013C0AD14FEA430C7FEA6C5C02D152EAB2
:100E6000033C02D14FF0000070474FF00100704783
:100E70004FEA410212F5001215D211D56FF47873C2
:100E8000B3EB625212D94FEAC12343F0004343EA65
:100E9000505311F0004F23FA02F018BF4042704740
:100EA0004FF00000704750EA013005D111F00040CA
:100EB00008BF6FF0004070474FF00000704700BF60
:100EC00070B50E4B0E4D1B682A7806464FF47A70AB
:100ED000B0FBF2F0B3FBF0F000F0A8F808B90F2E69
:100EE00001D9012070BD0446024631464FF0FF3063
:100EF00000F058F86E60204670BD00BF080000206A
:100F00000000002008B50B4B1A6842F400721A600A
:100F10001A6842F480621A601A6842F480721A6099
:100F2000032000F02DF80020FFF7CAFF02F012FBAB
:100F3000002008BD003C0240034A044B11681B78A6
:100F40000B441360704700BF08020020000000201F
:100F5000014B1868704700BF0802002038B50446EE
:100F6000FFF7F6FF631C054602D0044B1B781C44B8
:100F7000FFF7EEFF401BA042FAD338BD000000206F
:100F8000074AD3684FF6FF010B40000243F0BF63EE
:100F900000F4E06043F400330343D360704700BFC4
:100FA00000ED00E0184BDB68C3F3022330B4C3F15B
:100FB0000705042D03F1040428BF0425062C19D9C4
:100FC000033B4FF0FF349C4022EA04044FF0FF3211
:100FD000AA4021EA020101FA03F222431201002889
:100FE000D2B20ADB00F1604000F5614080F80023D6
:100FF00030BC704700242346E8E7044B00F00F00A4
:1010000003441A7630BC704700ED00E0FCEC00E0D1
:10101000002807DB00F01F0101234009024A8B4032
:1010200042F82030704700BF00E100E00138B0F125
:10103000807F0ED2084B10B4084C5860F02084F822
:1010400023000022072110469A6019605DF8044BC6
:1010500070470120704700BF10E000E000ED00E0A5
:10106000F8B50446FFF774FF002C54D00222236821
:1010700084F835201A68002122F0010284F8341027
:1010800005461A6005E0FFF763FF401B05283BD8C3
:1010900023681A68D107F6D4D4E90126D4E90351AC
:1010A000324360691F682A43D4E906650A43024354
:1010B000216A354832432A430A43616A3840042989
:1010C00042EA000229D01A605A6922F0070211434D
:1010D000DAB22E485961103AA0FB021212092C49CB
:1010E00023F47F73895CE16523F00303032A88BF3F
:1010F00004333F228A4001250021A36508469A60F7
:10110000616584F83550F8BD0323202262651846D6
:1011100084F83530F8BD0120F8BDD4E90B01014356
:101120000A43A56A1A605A6945F0040122F00702D1
:1011300011430028CCD07EB1B6F5005F16D0022D49
:1011400003D9032DC4D1C201C2D501234022626557
:10115000184684F83530F8BD012D03D0F3D3022DA5
:10116000B6D1F0E7B0F1C07FB2D1EEE7032DAFD832
:1011700001A252F825F000BF4B11000847110008EA
:101180004B110008651100083F8010F0ABAAAAAA15
:10119000205F0008F0B490F83440012C35D090F86E
:1011A0003540866D0125AC4280F8345027D1046863
:1011B0000227002580F8357045652568876825F485
:1011C0008025402F256063600ABFA260A160E160B6
:1011D000C16D18BFE2603F238B40026CB36023688F
:1011E00043F0160323601AB1236843F00803236019
:1011F000236843F0010323600020F0BC7047002304
:1012000080F83430F0BC022070470220F0BC7047F8
:1012100090F83530022B03D08023436501207047BE
:101220000268052380F83530136823F0010313604A
:1012300000207047F0B583B00023876D0193C36D24
:101240003D68654908229A402A4204460E6803D048
:1012500001680868400759D401229A402A4203D005
:1012600021684969080674D404229A402A4203D0AE
:1012700021680968890766D410229A402A4203D05F
:101280002168086800074BD420229A402A4214D0D3
:1012900021680868C00610D5BA6094F83520052A80
:1012A00063D00B6813F4802F0B687ED0190340F1D4
:1012B0008980E36B0BB120469847636D23B3636D60
:1012C000DA071AD50523226884F8353013684349B4
:1012D00023F00103A1FB06161360B60A02E01368AF
:1012E000DB0704D5019B0133B3420193F7D90022F8
:1012F000012384F8342084F83530E36C23B1204690
:1013000003B0BDE8F040184703B0F0BD086820F016
:1013100004000860BA60626D42F0010262659BE7FA
:10132000BA600A6812F4802F0A6818D1D20503D473
:101330000A6822F008020A60226C002AA4D0204623
:101340009047E36DA0E7BA60626D42F00402626507
:1013500092E7BA60626D42F00202626584E71103AF
:10136000EAD5A26C002AEAD18EE70A68206C22F046
:1013700016020A604A6922F080024A6138B30A689C
:1013800022F008020A603F22216D02FA03F30020D6
:101390000122BB6084F8340084F835200029B3D0E2
:1013A000204603B0BDE8F040084713F4807380D1B5
:1013B0000A68012022F010020A6084F8343084F8B0
:1013C000350076E7636C002B7FF475AF75E7A26C90
:1013D000002AD4D1D7E700BF08000020B5814E1BFA
:1013E00090F83500704700BF406D70472DE9F04F11
:1013F000D1F80090DFF8A0E185B000254FF0010B97
:101400008A4602E00135102D70D00BFA05F309EA87
:1014100003029342F6D1DAF804106E0001F00303E0
:1014200003245F1EB440E443012F009461D9032BD1
:1014300072D10768009CB3403C402343CF00036057
:10144000E0D5504C00230393636C43F48043636402
:10145000636C25F0030606F1804603F4804306F52D
:101460009C36039305F00304039BB768A4000F2385
:10147000A34027EA0303444FB84211D007F5806721
:10148000B84270D0414FB84271D0414FB84273D08A
:10149000404FB8420CBF0427072707FA04F4234340
:1014A000B360DEF80030D443CE0354BF234013436F
:1014B000CEF80030DEF804308F0354BF23401343CE
:1014C000CEF80430DEF80830CE0254BF2340134378
:1014D000CEF80830DEF80C30890205F1010554BF62
:1014E00023401343102DCEF80C308ED105B0BDE84B
:1014F000F08F876807EA040CDAF80C70B74047EA07
:101500000C078760D0F804C0C1F300172CEA020C66
:10151000AF4047EA0C074760C768009C07EA040C25
:10152000DAF80870B74047EA0C07022BC76080D191
:101530004FEAD50800EB880805F0070CD8F82040E2
:1015400001944FEA8C0C0F2404FA0CF7019C24EA56
:101550000707DAF81040019704FA0CF7019C2743BB
:10156000C8F8207065E70BFA04F4234398E70227D4
:1015700007FA04F4234393E7032707FA04F4234309
:101580008EE700BF00380240000002400008024021
:10159000000C024000100240003C014002B9090466
:1015A000816170472DE9F0410746164698468DB295
:1015B0003C6804E061694A0507D4731C1CD160696A
:1015C00035EA0000F6D1BDE8F081236800226FF40F
:1015D000806043F400732021236060613A6387F8E0
:1015E0003D1087F83E203B6C87F83C2043F0040315
:1015F0003B640120BDE8F081FFF7AAFCA0EB0800E6
:10160000B04201D8002ED3D1002220233A6387F8BC
:101610003D3087F83E203B6C87F83C2043F02003A8
:101620003B640120CFE700BFF8B506460D461746DC
:10163000306804E04469620507D46B1C16D1436925
:1016400013F08003F6D00020F8BD6FF480612022F3
:101650004161336386F83D2086F83E30326C86F86F
:101660003C3042F0040232640120F8BDFFF770FC08
:10167000C01BA84201D8002DDAD1002220233263FA
:1016800086F83D3086F83E20336C86F83C2043F0E7
:10169000200333640120F8BD2DE9F84381469046CC
:1016A0001E460F0C8CB2D9F8005009E0A96934EA43
:1016B00001030CBF0120002080450BD1731C0CD10D
:1016C000012FF3D16B6934EA03030CBF0120002022
:1016D0008045F3D00020BDE8F883FFF739FC089B74
:1016E000C01AB04201D8002EDDD100222023C9F853
:1016F000302089F83D3089F83E20D9F8403089F80B
:101700003C2043F02003C9F840300120E3E700BF4C
:101710002DE9F0470468266846F48066266084B0A8
:1017200026680D9F46F48076884691469A46266044
:101730000C9B009700224FF001110546FFF7ACFF0C
:1017400058B12B681B68DB0503D4032004B0BDE847
:10175000F0874FF400732B64F7E72B682F495FFA8B
:1017600088F808F0FE021A6128463B460C9AFFF7FB
:1017700019FF18B1012004B0BDE8F0872B68039071
:101780005A6903929B6903933A460C99039B284636
:10179000FFF74AFF48BBBAF1010F2B682ED15FFA61
:1017A00089F21A613A460C992846FFF73DFFE0B9E5
:1017B00029680B6843F480730B6002460C9B00970A
:1017C0004FF001112846FFF767FF0028B9D12868BC
:1017D000124948F0010202613B4628460C9AFFF785
:1017E000E1FE003018BF0120B0E72B6C042BC1D103
:1017F0002A68136843F400731360BBE74FEA1922A9
:101800001A610C993A462846FFF70EFF0028ECD1E2
:101810002A685FFA89F31361C4E700BF0200010080
:10182000002800F09F80F8B590F83D30044603F0A2
:10183000FF02002B00F08F802368242284F83D20D3
:101840001A6822F001021A601A6842F400421A6013
:101850001A6822F400421A6001F0F8FB61684B4BF1
:1018600099424BD84A4B98427AD92268494B5568DD
:10187000A3FB00639B0C25F03F051D435560156AD3
:10188000013325F03F052B431362D5694900431E00
:10189000B3FBF1F30133C3F30B0325F44F45042BE2
:1018A00038BF042325F0FF052B43D361D4E9073566
:1018B0001068216920F0C0002B4303431360906837
:1018C000E568636920F4034020F0FF0029430143E9
:1018D0009160D168A06921F0FF0103430B43D360FD
:1018E0001168002341F0010120251160184623648E
:1018F00084F83D50236384F83E30F8BD264B98426F
:101900002ED92268234B5668244FA3FB00539D0C0D
:1019100026F03F062E434FF49673566003FB05F303
:10192000A7FB0353156AA6689B0925F03F05013301
:101930002B431362D56925F44F45013825F0FF0587
:1019400096B901EB4101B0FBF1F00130C0F30B009F
:10195000C0B90123A8E780F83C2001F019FE6BE72D
:101960000120F8BD0120704701EB810101EB8101ED
:10197000B0FBF1F00130C0F30B000028E9D040F4D7
:10198000404391E740F400438EE700BFA08601008A
:101990007F841E0083DE1B43FF083D00D34D621091
:1019A0002DE9F04786B0044698460E461746BDF826
:1019B0003C50FFF7CDFA0023039394F83D30202BE1
:1019C00027D16C4B6C4A1B68DB08A2FB03231B0A64
:1019D00003EB830303EB83038146039303E0216856
:1019E0008B699A0719D5039B013B0393039B002B3B
:1019F000F5D12022236384F83D2084F83E30226C08
:101A000084F83C3042F020020120226406B0BDE898
:101A1000F087022006B0BDE8F08794F83C30012B37
:101A2000F7D00B680122DB0784F83C2002D40B6856
:101A300013430B600B68514A23F400630B602220B0
:101A400040234FF0000A84F83D0084F83E30C4F88B
:101A500040A06585638D0E9860629BB22385E2622B
:101A600003B3A06B002839D0454D464AC563C26414
:101A7000C0E910AAC0F848A0C0F850A010310E9AD2
:101A8000FFF788FB0546002837D0202384F83D3037
:101A900084F83EA0236C84F83CA043F01003236438
:101AA0000120B7E723200090CDF8049043463A4642
:101AB00031462046FFF72CFEE8B9236805905A69A5
:101AC00005929A690592059A1A68202142F40072DB
:101AD0001A6084F83C0084F83D109BE7202384F8CA
:101AE0003D3084F83E00236C84F83C0043F08003D2
:101AF000236401208EE701208CE723200090CDF89D
:101B0000049043463A4631462046FFF701FEC8B9E5
:101B1000228D2368012A27D05A6842F480525A60E5
:101B2000002104915A6904929A690492049A5A68AD
:101B300084F83C1042F480725A605A6842F40062A1
:101B40005A6067E7A06BFFF763FB2368A16B1A6815
:101B5000CD6322F480621A6065851A68258522F0BB
:101B600001021A60012055E71A6822F480621A60A7
:101B7000D6E700BF0800002089B5F8140000FFFF79
:101B8000A11C00085D1C0008704700BF704700BF23
:101B9000704700BF704700BF704700BF704700BF6D
:101BA000704700BF90F83D20016D38B5034659B924
:101BB000C26C0168012A826C2AD0C2F307220A6132
:101BC000026D0132026538BD016D012926D0016D1B
:101BD0000229F8D1D2B2222A2CD0418D89B229BB58
:101BE000418D89B20029EED1212AECD102685468D6
:101BF00024F4E06454601468202544F400741460F4
:101C0000016380F83D5080F83E10FFF7C9FF38BDF2
:101C1000D2B20A61026D0232026538BD826C01687F
:101C2000D2B20A61026D0132026538BD212A07D0A5
:101C30005B8D38BD0268136843F48073136038BD50
:101C4000416A026811F8010B10615A8D5962013A1C
:101C500092B25A8538BD00BF704700BF10B5846B83
:101C6000636B0BB10022DA63A36B0BB10022DA6362
:101C7000FFF7BAFB022812D021680B68002223F478
:101C8000806320200B60628584F83D0084F83E204C
:101C9000236C43F0100323642046FFF7DDFF10BDE3
:101CA00070B5846B236894F83D2094F83E00E66A92
:101CB0005968656B21F44071D2B2C0B259600DB160
:101CC0000021E963A16B09B10025CD6302F0210178
:101CD00021293ED002F02201222938D094F83E205A
:101CE000002A33D0628D92B2012A03D11A6822F4FD
:101CF00080621A605A6816F5803F22F440725A607A
:101D000006D0082E04D0B6F12A4F01D0202E03D1E0
:101D10001A6842F400721A605A6822F480525A60BB
:101D20005A68002122F400625A606185236C33BB3B
:101D3000202284F83D2094F83E20402A18D0122218
:101D400084F83E3020462263FFF720FF70BD202834
:101D5000C4D15968002021F40061292A59606085A6
:101D600011D02A2A19D05A6842F440725A6070BDC4
:101D700084F83E302046236301F0BCFA70BD204653
:101D8000FFF76AFF70BD282321222263204684F8D2
:101D90003D30FFF7FDFE2368E5E72823222222637A
:101DA000204684F83D30FFF7F5FE2368DBE700BFEF
:101DB000704700BF70B53B4B3B4C1B68816B82B0DA
:101DC000DB08A4FB0323002201921B0A91F83D00CB
:101DD0000A6803EB8303C3EBC3030193C0B205E0BE
:101DE000019B013B019313689B0506D5019B002BCA
:101DF000F6D10B6C43F020030B64D1E90D434CB3D7
:101E00000025E563FBB11668DD6326F48066166085
:101E10004D85256500241C65136823F001031360BC
:101E200091F83D30602B2AD000F02800282819D0E6
:101E30002022002381F83D2081F83E300846FFF73C
:101E40000BFF02B070BD156825F4806515604B85E9
:101E50002365E1E7FBB11568DC6325F48065156057
:101E60004C85D7E7136843F001031360136800241F
:101E700043F4806313600C6381F83D00DEE70023C8
:101E8000202281F83D20084681F83E300B64FFF7A0
:101E90008FFF02B070BD146824F4806414604B8519
:101EA000BAE700BF0800002089B5F81490F83D108B
:101EB00090F83E20D2B2102A38B5C9B20446036861
:101EC00027D0402A25D001F02802282A2BD05A6892
:101ED000100507D4602905D02021002284F83D1088
:101EE00084F83E20002222635A6812F4006222D154
:101EF00094F83D10602955D05A69500605D5626A9C
:101F00001B691370636A013363622046FFF7A4FE06
:101F10002AE02229D7D11A6822F400621A605A688E
:101F20001505D9D5DEE70021216384F83D205A68E4
:101F300012F40062DCD05A68606B22F400625A60CE
:101F400090F83530012B43D0304B0365FFF760F933
:101F500050B12268606B1368016D23F001032025E6
:101F6000136084F83D508847236C190704D0226819
:101F7000536823F4E063536094F83D30226C5207B9
:101F8000DBB201D5282B00D038BD214BE3622022E3
:101F900000232363204684F83D2084F83E30FFF779
:101FA000FDFD38BD202184F83D1022645A69550694
:101FB00006D5626A1B691370626A23680132626225
:101FC0001A6822F001021A602046FFF7F1FECBE703
:101FD000A06B0E4B0365FFF71BF90028C4D02368E4
:101FE0005A69520606D5626A1B691370626A2368D1
:101FF000013262621A68A06B22F0010220211A608D
:10200000036D84F83D109847AEE700BFB51D00088A
:102010000000FFFF70B5036804465868E56A94F84D
:102020003E2094F83D10D2B2102A8CB020D0402A25
:102030001ED0226CC9B2002A00F0BB805A6900266B
:10204000C2F34005002D78D085057BD5226C02B106
:102050009E6994F83D2002F02802282A00F012829E
:102060006FF002010022596184F83C200CB070BD71
:102070009E69596911F0010F39D1B5F52A0FF5D0D4
:10208000B5F12A4FF2D00D0740F19980850500F196
:10209000E981760740F100815D682D05E6D4C1F342
:1020A0008005090640F1A181460540F19E81002D81
:1020B00040F09E8194F83D20208D94F83E10E56A12
:1020C000D2B2C9B2002840F0CA82212A00F07D8332
:1020D0004029CBD1222AC9D1628D92B2002A00F0C8
:1020E0006F8394F83E20402A40F0B68086E1850553
:1020F00062D5E26AB2F52A0F00F0D881E26AB2F145
:102100002A4F04BF0822E26294F83E20402A00F0E1
:10211000D0812269B2F5804F00F09081226D002AB3
:1021200000F0CE81226D012AA0D1626CD21102F0A2
:10213000060242F0F1021A6198E7D60602D586053A
:1021400000F1D88001F0F7012129C2F380054ED0BB
:10215000510640F18B80420540F18880002D40F00F
:10216000888094F83D10628D92B2C9B2002A3FF483
:102170007DAF626A1B691370638D626A013B9BB21B
:102180006385638D01329BB26262002B7FF46EAF78
:102190002A297FF46BAF22685368222523F48063D9
:1021A000282153602046256384F83D10FFF7F2FC98
:1021B0005CE79E695A6943E70D073FF56AAF8D07F3
:1021C0007FF567AF85057FF564AF94F83E20E06A40
:1021D000256B94F83D102229D2B200F0A68100228E
:1021E00009925A6909929B690993099B3EE7120675
:1021F00027D5460525D53DBB94F83D00628D92B2AA
:10220000C0B2002A3FF432AF656A15F8012B1A619B
:10221000628D6562013A92B26285628D92B2002A45
:102220007FF424AF29287FF421AF5A68282522F4AF
:1022300080625A602046216384F83D50FFF7A8FC75
:1022400014E7002D3FF412AF80057FF50FAF628DCC
:1022500092B2002A3FF40AAF626A12F8011B1961B8
:10226000638D6262013B9BB26385FFE6002D3FF404
:10227000FDAE86057FF5FAAE628D92B2002A3FF47C
:10228000F5AE626A1B691370638D626A013B9BB293
:10229000013263856262E9E65A6816053FF5E6AEEB
:1022A0004D06C1F3800240F1AF80410540F1AC80A2
:1022B000002A40F0AC8094F83D1022297FF4D6AE7D
:1022C000618D89B2032940F23B82626A1B691370F7
:1022D000638D626A013B9BB26385638D9BB2013261
:1022E000032B62627FF4C2AE2268536823F48063DA
:1022F0005360BBE694F83D105A6822F4E0625A60DD
:102300000B955A690B921A6842F001021A600B9AF7
:102310001A6822F480621A605A681605CDB221D577
:1023200005F0F702222A00F0DF80606B0268526835
:1023300092B26285628D92B21AB1226C42F00402AE
:1023400022645A6822F400625A60FFF749F80128B3
:1023500008D0606BA14B0365FEF75AFF10B1606BAC
:10236000036D9847638D9BB213B323685A69500776
:102370000AD5626A1B691370628D616A2368013A2B
:1023800092B20131628561625A69510609D5626A69
:102390001B691370638D626A013B9BB201326385D6
:1023A0006262638D9BB21BB1236C43F00403236410
:1023B000236C002B40F092802A2D00F0D38094F8FB
:1023C0003D30282B00F0D680236B222B02D0222D0B
:1023D0007FF44CAE002320222363204684F83D2066
:1023E00084F83E30FFF7D6FB40E6002D3FF43EAECA
:1023F00081057FF53BAE102A00F0C98020460CB065
:10240000BDE87040FFF7CEBB002A3FF42FAE860533
:102410007FF52CAEE06A628D616A92B2042A00F008
:102420000881628D92B2032A00F00A81628D92B215
:10243000022A00F04E811B690B7025E794F83D20BD
:10244000212A626C16BF42F0010202F0FE02D2B2F3
:102450001A61626B72B1D26B62B15A6842F4006267
:102460005A6003E6626C616BD2B21A6111B1CA6B39
:10247000002AF2D1A26B002A3FF4F8ADD26B002AF9
:10248000EBD1F3E55A6822F480625A606FEA960154
:1024900033064FF0000301F0010154BFA289228BE3
:1024A00084F83C302046FFF777FBDFE50122E2624B
:1024B0002AE6226D62B9626C02F0FE021A61D5E56D
:1024C000626CD21102F0060242F0F0021A61CDE510
:1024D000626C42F00102D2B21A61C7E520460CB02C
:1024E000BDE87040FFF7E2BCA06B0268526892B290
:1024F0006285628D92B21AB1226C42F004022264AB
:102500005A6822F400625A60FEF76AFF01283FF41D
:1025100029AFA06B314B0365FEF77AFE00283FF42C
:1025200021AFA06B036D98471CE7216D11B9402ABC
:1025300000F09980226D22B92169B1F5404F00F079
:102540009980628D92B2002A4CD102925A6902920D
:102550009A690292029A1A6842F400721A60002381
:10256000236583E528222363204684F83D20FFF776
:1025700011FB24E71A4BE362202200232363204649
:1025800084F83D2084F83E30FFF708FB6EE5E16AF1
:1025900094F83D20212A7FF469AD628D92B2002A21
:1025A0007FF45AAE082905D0202903D011F5803FC9
:1025B00040F096815A6822F4E0625A601A6800215D
:1025C00042F4007220251A602046216384F83D50B1
:1025D00084F83E10FFF7D8FA48E500BFB51D0008A3
:1025E0000000FFFF628D92B2012A51D0628D92B23B
:1025F000022A00F00A811A6842F480621A605A685E
:1026000011050ED510F5803F07D001381F2808D8D6
:10261000A74A22FA00F0C20703D55A6842F4805252
:102620005A60002208925A6908929B690893089B95
:1026300095E75A6822F480625A601B690B7023E6A2
:102640005A68042822F480625A603FF4F4AE0228EB
:102650003FF4F1AE1A6822F480621A60EBE6212A98
:102660003FF43AAD34E500915A6900929B690093BA
:10267000009BFBE401925A6901929A690192019AC6
:102680001A6842F480721A60236D01332365EDE409
:1026900010F5803F00F0F880082800F0E580202841
:1026A00000F0E280122D00F0DC80102805D8814A6D
:1026B00022FA00F0C20700F10E811A6822F480624B
:1026C0001A60002205925A6905929B690593059B41
:1026D00045E701281A686FD010286DD0042800F053
:1026E000F680022800F0F38042F400721A601B6941
:1026F0000B70638D626A2168013B9BB263850B6935
:10270000511C61625370638D2168626A013B9BB208
:1027100063854B68013223F44073202062624B6072
:1027200084F83D0094F83E30402B00F0C780002232
:10273000122384F83E2020462363FFF727FA95E40E
:10274000E06A02283FF492AC01293FF68FAC5A4967
:102750000A920A6846F2A811B2FBF1F202EB820279
:102760000A920A9A013A0A920A99002900F0E58031
:102770001A6812F40072F4D11968606A21F4806159
:102780001960596821F4E06159601B690370638D19
:10279000616A013B9BB22020638584F83D0094F878
:1027A0003E300131402B6162C2D184F83E20204688
:1027B000226300F09FFD59E422F480621A6096E7DC
:1027C0005A6822F480625A6050E4082D05D0202D0A
:1027D00003D015F5803F40F09B805A6822F4E062F8
:1027E0005A6019680022202041F4007119602263A8
:1027F00084F83D0094F83E3084F83E20402B20467B
:1028000000F09780FFF7C0F930E4102820D91A684B
:1028100022F480621A601A6842F400621A605A68F0
:1028200015050DD510F5803F06D001381F2807D8B3
:102830001F4AC240D00703D55A6842F480525A60FA
:10284000002207925A6907929B690793079B86E6C5
:10285000184AC240D607DAD51A6842F480621A6074
:10286000DDE701283FF429AF1A68002122F48062D5
:102870001A6006915A6906929A690692069A1A682F
:1028800042F400721A606AE61A6822F480621A60E2
:102890005A6812F4006230D01A68002122F4806273
:1028A0001A6003915A6903929B690393039B56E64E
:1028B000818000801400010008000020002384F8BB
:1028C0003E302046236300F015FDFFF7CFBB42F4F6
:1028D00080621A600BE71A6842F480621A60F0E6C0
:1028E0005968112621F4E0612025596020462663AD
:1028F00084F83E2084F83D5084E704925A6904929B
:102900009A690492049A1A6842F400721A6026E6E0
:102910005A68112622F4E062002520215A602046E0
:10292000266384F83E5084F83D10FFF72DF9FFF739
:102930009DBBFFF735F9FFF799BB226C606A42F047
:10294000200222645A6822F4E0625A601B69037014
:10295000638D626A013B9BB2013220206385626213
:1029600084F83D00204684F83E10FFF775F9FFF724
:102970007DBB00BFF8B503685D695A6890F83E10EA
:10298000CEB2E905044630D5110ACF07C5F3402081
:102990002DD56FF480725A61002836D16F0565D548
:1029A0000127628D94F83D10206B202E92B2C9B29F
:1029B0003CD06FF48062102E47F004075A6101D0BA
:1029C000402E03D11A6842F400721A602A0504D519
:1029D0006FF4006247F008075A61236C1F432764B5
:1029E0002046BDE8F840FFF761BAC5F3402010B1BA
:1029F000110AC80716D4C5F3802717B1D70513D419
:102A0000F8BD2905FCD5110A07E003276FF4007211
:102A10005A616A05C5D42805DFD5C907D8D4002F67
:102A2000DBD1F8BD0227F1E70027BAE7C2B901F010
:102A3000F702212A03D0282912D1212810D194F895
:102A40003D20E16A0829D2B215D0202913D0212ACD
:102A50002AD06FF480625A612B05E0D52368B7E76E
:102A60006FF4806247F004075A61AFE728054FF022
:102A70000107ADD4B1E7282AE9D1174AE2625A68C2
:102A80006FF4806122F4E0625A6059611A680A406A
:102A90001A60002120232163204684F83D3084F809
:102AA0003E10FFF77BF8D7E70B49E16220200021B9
:102AB000226384F83D0084F83E105A686FF4806108
:102AC00022F4E0625A6059611A680A401A6020468E
:102AD000FFF75EF8C0E700BF0000FFFF002800F02E
:102AE00032812DE9F0410368DD0782B004462FD51D
:102AF000AC498A6802F00C02042A00F0EA808A6875
:102B000002F00C02082A00F0E0806368B3F5803F11
:102B100000F0E980B3F5A02F00F07E81A14D2A6876
:102B200022F480322A602A6822F480222A60002B54
:102B300040F0DE80FEF70CFA064605E0FEF708FAE4
:102B4000801B642800F2F2802B689B03F6D4236874
:102B50009F0775D41A0715D56369002B00F0A5806F
:102B6000914B904D01221A60FEF7F2F9064605E0FE
:102B7000FEF7EEF9801B022800F2D8806B6F9B07EE
:102B8000F6D5236858073BD5864A136C13F080535B
:102B900040F0DB800193136C43F080531364136C9B
:102BA00003F080530193019B0126804D2A68D105D3
:102BB00040F1AC80A368012B00F0C980052B00F028
:102BC0003581784D2A6F22F001022A672A6F22F0A0
:102BD00004022A67002B40F0BF80FEF7B9F941F2EA
:102BE0008837804606E0FEF7B3F9A0EB0800B8424C
:102BF00000F29C802B6F9807F5D4002E40F0DC800B
:102C0000A069C8B1674DAA6802F00C02082A00F05A
:102C1000D980674A00210228116000F01181FEF777
:102C200097F92C46054604E0FEF792F9401B02286E
:102C30007CD823689B01F7D4002002B0BDE8F08166
:102C4000584A916811F00C0F24D0916801F00C01E2
:102C500008291CD0E368002B00F09280554B514DA1
:102C600001221A60FEF774F9064604E0FEF770F9D7
:102C7000801B02285AD82B689807F7D52B68226941
:102C800023F0F80343EAC2032B60236862E752682B
:102C90005602DFD4434A126895074BD5E268012AF1
:102CA00048D0012002B0BDE8F0813F4A3D4D13609D
:102CB000FEF74EF9064604E0FEF74AF9801B0228AB
:102CC00034D86B6F9F07F7D45BE74A6850027FF5F3
:102CD0001CAF344A126891037FF53AAF6268002A4C
:102CE0007FF436AFDDE72F4A136843F48033136077
:102CF000FEF72EF92B4D064604E0FEF729F9801B5E
:102D0000642813D82B689A03F7D520E72A6842F481
:102D100080722A60FEF71CF907462B68DA053FF53A
:102D200049AFFEF715F9C01B0228F6D9032002B0FF
:102D3000BDE8F0811B4920690A6822F0F80242EAE6
:102D4000C0020A6006E70120704700262DE7154AF9
:102D5000136F43F001031367FEF7FAF8114D804635
:102D600041F2883705E0FEF7F3F8A0EB0800B8421F
:102D7000DCD82B6F9B07F6D5002E3FF441AF1BE04C
:102D80000C4A084D1360FEF7E3F8064604E0FEF730
:102D9000DFF8801B0228C9D82B689907F7D423686D
:102DA000D8E600BF00380240800E47420070004065
:102DB0006000474200004742384A136C23F08053BA
:102DC00013641DE701283FF46DAF6B68E26903F4FB
:102DD000800191427FF465AF226A03F03F01914286
:102DE0007FF45FAF47F6C072616A1A40B2EB811F91
:102DF0007FF457AFA26A5208013A03F44031B1EBB5
:102E0000024F7FF44EAFE26A03F07063B3EB026FE0
:102E100014BF0120002045E7204B1A6842F48022AD
:102E20001A601A6842F480321A6061E71B4B1A6F0D
:102E300042F004021A671A6F42F001021A678BE728
:102E4000FEF786F8064605E0FEF782F8801B0228AA
:102E50003FF66CAF2B689901F6D4D4E90736D4E974
:102E60000902E16A0D4C334343EA8013520843EAF6
:102E70000163013A0A4943EA024301226B600A6096
:102E8000FEF766F8054605E0FEF762F8401B0228EB
:102E90003FF64CAF23689A01F6D5CDE600380240E4
:102EA00060004742174908B58B6803F00C03042BF8
:102EB0001BD0082B17D14A684B6813F4800302F02B
:102EC0003F0214D149681048C1F38811A1FB0001E9
:102ED000FDF742FB0B4B5B68C3F3014301335B001F
:102EE000B0FBF3F008BD084808BD084808BD4B68B2
:102EF0000648C3F38813A3FB00010023FDF72CFB56
:102F0000E8E700BF003802400024F40000127A0015
:102F100060B1494A136803F007038B4208D2CBB271
:102F20001370136803F007038B4201D00120704730
:102F300003682DE9F0419D0714D55C0704D53F4C8B
:102F4000A26842F4E052A2601A0704D53B4CA26882
:102F500042F46042A260394C8568A26822F0F00217
:102F60002A43A260DF0704460D4622D54268012AA3
:102F700057D0931E012B314B1B6859D9990725D582
:102F80002E4EB36823F003031343B360FDF7E0FF55
:102F900041F28837804605E0FDF7DAFFA0EB080034
:102FA000B84243D8B368626803F00C03B3EB820FF6
:102FB000F2D1214A136803F00703AB4209D9EBB2FF
:102FC0001370136803F00703AB4202D00120BDE881
:102FD000F08123685A0706D51849E0688A6822F408
:102FE000E05202438A601B0712D4FFF75BFF134BCA
:102FF000134C9B681349144AC3F30313E35C20FA90
:1030000003F308681360FDF75BFF0020BDE8F08163
:103010000A4A2169936823F4604343EAC103936039
:10302000E3E7064B1B689E03AAD4CFE70320EDE736
:103030009801A5D4CAE700BF003C02400038024016
:10304000285F00080400002008000020044B054A07
:103050009B680549C3F382230868D35CD840704756
:1030600000380240385F000808000020044B054A81
:103070009B680549C3F342330868D35CD840704766
:1030800000380240385F00080800002070B5044690
:103090002F482268E5681169A368266921F4405128
:1030A000294311616569D16833432B43E56921F4F4
:1030B000164121F00C012B430B43D3605369A169E6
:1030C00023F440730B438242536105D0214B9A4253
:1030D00002D0FFF7BBFF01E0FFF7C8FFE26919214B
:1030E000B2F5004FD4E90043A0FB010113D09A00D0
:1030F0009B0FFDF731FA1849A1FB003252096423F6
:1031000003FB12031B013233A1FB0313120102EB79
:103110005313A36070BDDA184FF0000646EB0603A8
:10312000FDF71AFA0C4DA5FB00325109642303FB8D
:103130001103DB003233A5FB03235B0903F0070215
:103140005B0002EB011203F4F8731344A36070BD3B
:1031500000100140001401401F85EB512DE9F041A2
:1031600007460E4690461D463C6801E06B1C06D1A2
:10317000206836EA0003F9D10020BDE8F08135B1BE
:10318000FDF7E6FEA0EB08008542EDD23C68E3685F
:1031900023F4D073E3606369202223F0010300214C
:1031A0006361032087F83D2087F83C1087F83E20B4
:1031B000E3E700BF60B338B590F83D30044603F054
:1031C000FF0203B32268242384F83D30D36823F43C
:1031D0000053D3602046FFF759FF23681A6922F491
:1031E00090421A615A6922F02A025A61DA6800256F
:1031F000202142F40052DA602846256484F83D100C
:1032000084F83E1038BD80F83C2000F047FAD9E73A
:10321000012070472DE9F0410D4690F83D1020291E
:1032200082B03FD1002D41D00192002A3ED01E46EF
:1032300090F83C30012B044634D0212301214FF07B
:103240000008C0F8408080F83C1080F83D30FDF761
:103250007FFEA368019AA284B3F5805F0746E284EB
:1032600036D0E38C00229BB284F83C2053B923E093
:1032700015F8012B5A60E38C013B9BB2E384E38C8D
:103280009BB2CBB133463A4680212046FFF766FF1A
:1032900080B92368002DEBD138F8022BC2F3080265
:1032A0005A60E8E7022002B0BDE8F081012002B0D8
:1032B000BDE8F0810320F6E733463A464021204638
:1032C000FFF74CFF0028F5D1202384F83D30EAE7D2
:1032D0002369002BC5D1A8461D46C2E710B54FF49F
:1032E0007A731446024892B2FFF794FF204610BD4D
:1032F0002803002070B5124B9FED127A5D781A7882
:10330000114C1248124902EB052292B25300A3F568
:10331000D543333B1BB207EE903AF8EEE76A2280C2
:10332000C6EE877A0380C1ED007A17EE900AFDF7AA
:10333000BBF8BDE8704002460B46064800F018BFD7
:10334000700300200000C8426C030020C00200206F
:10335000C4020020405F000830B5002395B0CDE9DD
:103360000B33CDE90933CDE90433CDE906331E49EA
:1033700001930D930393086C1C4A40F0805008643D
:10338000096C01F08051019101990293116841F497
:103390004041116012680F9302F4404201200292F2
:1033A000022410224FF4A87104230B9008A8029D58
:1033B00008940E940C92CDE91021CDE91233FFF759
:1033C0008DFB00B1FEE703460F254FF4805203A8A2
:1033D0002146CDE90443079303950692FFF798FD34
:1033E00000B1FEE715B030BD00380240007000406B
:1033F00000B500258DB0FDF785FDFFF7ADFFCDE9E8
:103400000755CDE90955484E03950B95336B474851
:10341000474C43F004033363336B03F0040303931B
:10342000039B0495336B43F080033363336B03F0EA
:1034300080030493049B0595336B43F001033363CE
:10344000336B03F001030593059B0695336B43F043
:1034500002033363336B03F0020306932A462021F1
:10346000069BFEF79BF84FF40052324B324807920E
:1034700007A908930995FDF7B9FF2022012307A9A1
:103480002A48CDE90723CDE90955FDF7AFFF079598
:10349000336B43F400133363336B03F400132A4696
:1034A000294607930B20079BFDF77CFD0B20FDF7BA
:1034B000AFFD2A4629460C20FDF774FD0C20FDF7D0
:1034C000A7FD1E491E4AA5604FF480432046E560D3
:1034D000C4E90555C4E90755C4E900122361FEF7A4
:1034E0009FF900B1FEE7174B174D98604FF4165146
:1034F0000C22C3E90300C3E906001846C3E90051E2
:103500005A61FFF757FE00B1FEE7104E0325CDE9E3
:10351000006501230722B4212046FEF741FA4FF44B
:10352000FA70FDF71BFDF2E7003802400000024090
:103530006C020020000021100008024000540040EE
:10354000A0860100280300200044004070030020F2
:10355000FEE700BF82B00D4B002100915A6C42F48F
:1035600080425A645A6C02F480420092009A01919F
:103570001A6C42F080521A641B6C03F08053019362
:10358000019B072002B0FDF7FBBC00BF00380240E2
:10359000F0B502683A4B89B000249A42CDE9034461
:1035A000CDE90544079401D009B0F0BD354F019431
:1035B0003B6B43F002033B633B6B03F0020301935D
:1035C0004FF44073019A039312220123CDE904239F
:1035D00003A90423032506462B48CDE90653FDF72E
:1035E00005FF02943B6C294D2949AC6043F400135C
:1035F0003B643B6CEC6003F4001302934FF00072E9
:103600004FF4806302986C622846C5E90544C5E919
:103610000744C5E900122B61FDF722FD48BB1D4C94
:103620001D4BB56340214FF4806223602046002388
:10363000AE63A16022616360E360C4E90533C4E95D
:1036400007336362FDF70CFDB0B9002211467463C5
:103650001F20A663FDF7A6FC1F20FDF7D9FC002262
:1036600011462020FDF79EFC2020FDF7D1FC09B07B
:10367000F0BDFFF76DFFD2E7FFF76AFFE5E700BF98
:10368000005400400038024000040240C8020020FC
:10369000106002400C0200202860024070B50168F2
:1036A000174A88B000239142CDE90333CDE90533B1
:1036B000079301D008B070BD02F5FA320193116C86
:1036C000104841F400311164116C01F40031019192
:1036D00001990293136B43F001031363136B03F01F
:1036E000010302930322072303A90C250224029E4F
:1036F000CDE90354CDE90623FDF778FE08B070BD8F
:103700000044004000000240FDF716BC0148FDF7F0
:1037100091BD00BFC80200200148FDF78BBD00BF6E
:103720000C0200200148FEF775BC00BF6C020020AF
:103730000148FFF71FB900BF6C02002070B5161ECC
:1037400007DD0C468D19AFF3008004F8010BA5428C
:10375000F9D1304670BD00BF0C4A08B5136833B1CB
:1037600018446946884208D81060184608BD084BBE
:103770001360184469468842F6D900F06BF80C23B0
:1037800003604FF0FF33184608BD00BFF80100206A
:10379000780300204FF0FF30704700BF4FF4005314
:1037A0004B600020704700BF012070470020704729
:1037B0001049114BD1F8882042F4700210B4C1F8BE
:1037C00088201A680D4C002042F001021A609860AF
:1037D0001A6822F0847222F480321A605C601A68DF
:1037E0004FF0006422F480221A60D8608C605DF88B
:1037F000044B704700ED00E0003802401030002418
:10380000DFF834D0002103E00C4B5B584350043107
:103810000B480C4B42189A42F6D30B4A02E00023A5
:1038200042F8043B094B9A42F9D3FFF7C1FF00F07D
:1038300017F8FFF7DDFD704700000220286200083E
:1038400000000020DC010020DC01002078030020C3
:10385000FEE70000014B1868704700BF0C00002015
:1038600070B50D4E0D4CA41BA4100025A54209D126
:103870000B4E0C4C02F046FBA41BA4100025A542E5
:1038800005D170BD56F8253098470135EEE756F85A
:10389000253098470135F2E72062000820620008D1
:1038A000206200082462000802440346934200D1CB
:1038B000704703F8011BF9E72DE9FF4755EC104B62
:1038C0000D9FDDF830A0002D0E4691461946B8BF79
:1038D00022462B4627F02007BBBF05F100431D46BB
:1038E00000232D23B8BF1446462F0B7004D0452F5C
:1038F00000D10136022100E0032103AB019302ABAA
:1039000000933246534645EC104B00F0D5FC472F50
:10391000804602D119F0010F26D0462F08EB060988
:1039200011D198F80030302B0AD100220023204614
:103930002946FDF755FA18B9C6F10106CAF8006024
:10394000DAF8003099440022002320462946FDF78A
:1039500047FA38B93022039B4B4505D2591C0391D5
:103960001A70F8E7CDF80C90039B0E9AA3EB0803AE
:103970004046136004B0BDE8F087F7B5002904465F
:10398000BABF49422D232B23092904F8022B437087
:1039900020DD0DF107031F460A2691FBF6F506FB15
:1039A00015113031092D03F8011C03F1FF322946AE
:1039B00009DC3031023B02F8011CBB42224604D331
:1039C000101A03B0F0BD1346E7E713F8012B04F813
:1039D000012BF2E7302319448370021DC170EFE719
:1039E0002DE9F04F8DB00C46DDF8588016461F4685
:1039F000054601F0E3FA036804931846FCF72CFF30
:103A000000230A93D8F800300590073323F007030A
:103A100003F1080294F818A0D4F800B0C8F8002008
:103A2000D3E90023C4E91223D4E9128929F0004321
:103A30000793CDF818804FF0FF32A74BDDE9060160
:103A4000FDF700FA70BB4FF0FF32A34BDDE9060132
:103A5000FDF7DAF930BB0022002340464946FDF766
:103A6000C9F910B12D2384F843309C4A9C4BBAF11C
:103A7000470F8CBF9046984603232BF00402236126
:103A800022604FF00009009733460BAA21462846D2
:103A900000F0E6F9013040F08D804FF0FF300DB0BE
:103AA000BDE8F08F42464B4640464946FDF7CAF90D
:103AB00010B18C4A8C4BDAE761684B1C4BF4806286
:103AC0000AA83ED1062363600023CDE9020309ABB7
:103AD000009349EC108B0DF123032260CDF804A074
:103AE00061682846FFF7E8FE0AF0DF03472B8046AF
:103AF00009D1099BD81C02DB6268934247DDAAF119
:103B0000020A5FFA8AFABAF1650F099924D80139D5
:103B1000524604F150000991FFF72FFF0A9A13183B
:103B2000012A8146236102DC2268D10701D50133D5
:103B300023619DF82330002BA5D02D2384F843303A
:103B4000A1E7BAF1670F00F07781BAF1470FBBD157
:103B50000029B9D10123B6E7BAF1660F19D10029BE
:103B600063680CDD216113B92268D20702D50133E5
:103B70000B442361099BA3654FF00009D9E713B9F2
:103B80002268D00701D50233F3E70123F1E74FF0B4
:103B9000670ADDE90932934205DB22682361D10718
:103BA000E8D50133E5E7002BD4BFC3F102030123BD
:103BB0001344DEE723685A0507D423694246314699
:103BC0002846B84701302BD167E7BAF1650F40F2BC
:103BD000DC8000220023D4E91201FDF701F900285E
:103BE00033D00123414A31462846B84701303FF4DB
:103BF00054AFDDE909239A4202DB2368D8070FD5C9
:103C0000DDE9042331462846B84701303FF445AF8B
:103C10004FF0000804F11A090A9B013B434509DCF7
:103C200023689B0700F10381E0680B9B9842B8BFB3
:103C3000184634E701234A4631462846B847013042
:103C40003FF42BAF08F10108E6E7099B002B2BDCC2
:103C50000123264A31462846B84701303FF41DAFBC
:103C6000099B23B90A9B13B92368D907D8D5DDE985
:103C7000042331462846B84701303FF40EAF4FF0D9
:103C8000000904F11A0A099B5B424B4501DC0A9BBF
:103C900094E70123524631462846B84701303FF4A5
:103CA000FCAE09F10109EEE70A9AA36D9A42A8BF9A
:103CB0001A46002A914607DD1346314642462846F9
:103CC000B84701303FF4E9AE04F11A034FF0000B9E
:103CD00029EAE979069315E0FFFFEF7F5C5F0008B2
:103CE000585F0008645F0008605F0008685F0008B4
:103CF0000123069A31462846B84701303FF4CDAE3D
:103D00000BF1010BD4F858A0AAEB09035B45EFDCDB
:103D1000DDE909239A42D04415DB2368DA0712D47F
:103D20000A9B0999A3EB0A02A3EB010A9245A8BFDB
:103D30009246BAF1000F0EDC4FF000082AEAEA7A48
:103D400004F11A0919E0DDE9042331462846B84791
:103D50000130E5D1A1E65346424631462846B847F0
:103D60000130E9D199E601234A4631462846B84751
:103D700001303FF492AE08F10108DDE909239B1AF6
:103D8000A3EB0A034345EEDC4AE70A9A012A01DC69
:103D9000DB073AD50123424631462846B847013071
:103DA0003FF47BAEDDE9042331462846B8470130B5
:103DB00008F101083FF471AE0A9B002203F1FF3ABB
:103DC000D4E912010023FDF70BF8C8B95346424667
:103DD00031462846B84701300ED15EE601235246EF
:103DE00031462846B84701303FF457AE08F1010884
:103DF0000A9B013B4345F1DC4B4604F15002DEE6F1
:103E00004FF0000804F11A0AF2E70123DFE701236B
:103E10004A4631462846B84701303FF43EAE08F1E5
:103E20000108E3680B9A9B1A4345F0DCFCE64FF06F
:103E3000000804F11909F4E700293FF48BAE0023D0
:103E4000CDE9020309AB009349EC108B2260CDF859
:103E500004A00DF123032846FFF72EFD804648E617
:103E60002DE9F04791461F468A680B69DDF82080EE
:103E70009342B8BF1346C9F8003091F84320064674
:103E80000C4612B10133C9F800302368990642BFCD
:103E9000D9F800300233C9F80030256815F006055E
:103EA00007D104F1190AE368D9F800209B1AAB4244
:103EB00028DC94F843302268003318BF01239206AF
:103EC0002DD404F1430239463046C047013020D09A
:103ED0002368E568D9F8002003F00603042B08BF27
:103EE000AD1AA36822690CBF25EAE5750025934247
:103EF000C4BF9B1AED184FF000091A344D451AD172
:103F0000002008E00123524639463046C0470130C0
:103F100003D14FF0FF30BDE8F0870135C3E7E1186A
:103F20005A1C302081F84300224494F8451082F84E
:103F300043100233C5E70123224639463046C047C5
:103F40000130E6D009F10109D8E700002DE9F0437E
:103F500001F1430C0C46097E85B06E2917460646D2
:103F600098460C9A00F0B38022D8632936D00AD83C
:103F7000002900F0B980582900F0838004F142053F
:103F800084F8421032E0642901D06929F6D1206812
:103F90001368050603F104012AD51B681160002B84
:103FA00003DA2D225B4284F843206F480A2239E06D
:103FB000732900F09D8008D86F2920D07029DDD1A9
:103FC000236843F02003236003E0752917D0782984
:103FD000D4D1782384F84530644855E01368191D1E
:103FE0001B68116004F1420584F8423001238CE023
:103FF0001B68116010F0400F18BF1BB2CFE71368A9
:104000002568181D1060280601D51B6802E06806A7
:10401000FBD51B8854486F2914BF0A2208220021AF
:1040200084F843106568A560002DC0F29580216872
:1040300021F004012160002B3DD1002D40F08E8045
:104040006546082A0BD12368DB0708D52369626817
:104050009A42DEBF302305F8013C05F1FF35ACEB99
:1040600005032361CDF800803B4603AA2146304674
:10407000FFF7F6FE01304DD14FF0FF3005B0BDE83F
:10408000F083394884F84510136821681D1D1B68AA
:1040900015600A060BD5CA0744BF41F02001216014
:1040A0001BB9226822F0200222601022B7E74D06D9
:1040B00048BF9BB2EFE76546B3FBF2F102FB113359
:1040C000C35C05F8013D0B460029F5D1B9E713683B
:1040D00025686169181D106028061B6801D51960E4
:1040E00002E06A06FBD51980002323616546B9E723
:1040F0001368191D11601D68626800212846FCF7CD
:10410000B7FB08B1401B606063682361002384F83B
:104110004330A7E723692A4639463046C047013075
:10412000AAD023689B0713D4E068039B9842B8BFCA
:104130001846A3E701234A4639463046C0470130B6
:104140009AD00135E368039A9B1AAB42F2DCEBE7A5
:10415000002504F11909F5E7002BACD1037884F8A8
:10416000423004F142056CE76A5F00087B5F00089B
:104170000FB40A4B13B51C6824B1A36913B92046C8
:1041800000F092FE05AB049AA1680193204601F06D
:10419000F1FA02B0BDE8104004B070470C000020F6
:1041A0002DE9F74F03690C69A3428046C0F2828073
:1041B000013C01F114074FEA840C00F1140657F892
:1041C000245056F8240006EB0C03013507EB0C09CC
:1041D0000193B0FBF5F595B34FF0000A3846B646AB
:1041E000D34650F8042B93B205FB03A34FEA134ABE
:1041F0009BB2ABEB0303120CDEF800B005FB02A28E
:1042000013FA8BF34FEA124A1FFA82FBDEF8002002
:10421000CBEB124202EB23429BB243EA02438145BD
:104220004FEA224B4EF8043BDBD256F80C3033B940
:10423000019B043B9E421A4630D3C8F810404046CA
:1042400001F0F2F8002825DB013530464FF0000C74
:1042500057F8042BD0F800E093B2ACEB0303120C38
:1042600013FA8EF3C2EB1E4202EB23429BB243EAE7
:104270000243B9454FEA224C40F8043BE8D256F8D5
:10428000242006EB84032AB9043B9E421A460BD332
:10429000C8F81040284603B0BDE8F08F1268043B10
:1042A000002ACAD1013CC5E71268043B002AEFD1BD
:1042B000013CEAE70020EEE72DE9F04F57EC106BE8
:1042C00097B0456A069104460B921293DDF8808000
:1042D000CDE900673DB9102000F07EFE6062C0E9C4
:1042E00001550560C560636A196851B15A684A6032
:1042F000012393408B60204600F0B5FE636A0022E4
:104300001A603B1EBBBF23F0004301930023012230
:10431000ACBFC8F80030C8F80020AF4BDDF804800F
:1043200033EA080314D1129A42F20F731360009B10
:1043300023B9C8F31300002800F04285219BDFF861
:10434000ACB2002B00F044850BF1030300F03EBD3E
:10435000DDE900670022002330463946FCF740FDC6
:10436000814668B1129A01231360219B002B00F053
:1043700024859A4B219A03F1FF3B136000F028BD7E
:1043800014AA15A947EC106B204601F0C4F8C8F335
:104390000A550490002D7CD0C7F3130343F07F5BD4
:1043A000B2464BF4401BA5F2FF35CDF84C900022ED
:1043B0008B4B50465946FBF717FF81A3D3E90023E7
:1043C000FCF7A6FA80A3D3E90023FBF70FFF06460C
:1043D00028460F46FCF756F87DA3D3E90023FCF7E7
:1043E00097FA02460B4630463946FBF7FFFE064673
:1043F0000F46FCF73DFD0022824600233046394639
:10440000FCF7F8FC48B15046FCF73CF832463B4616
:10441000FCF7E6FC08B90AF1FF3ABAF1160F59D8D1
:10442000704901EBCA01DDE90023D1E90001FCF785
:10443000FFFC002850D00AF1FF3A00230F93149B91
:104440005D1BB5F1010849BFC5F1010300230593C8
:104450004FF0000858BF0593BAF1000F3EDB002370
:10446000D044CDF838A00793069B092B00F290802A
:10447000052BC4BF043B0693069BA3F10203CCBFEC
:1044800000250125032B00F28F80DFE803F07D7FFC
:104490003171DDE914531D4405F23240202813DD4B
:1044A000C0F14000009B08FA00F805F2124023FA20
:1044B00000F048EA0000FBF7D5FF01238246A1F196
:1044C000F87B013D139372E7009BC0F1200003FAD3
:1044D00000F0F0E70123B1E70F90B0E7059BA3EBF5
:1044E0000A030593CAF10003079300230E93BBE769
:1044F00001230A930B9B002B59DD02939946666AB0
:1045000000227260042202F114009842716853D9AB
:10451000204600F074FD636A3060B9F10E0FD3F8E5
:1045200000B000F2E680002D00F0E3809DED007BFE
:10453000BAF1000F8DED107B74DD2A4A0AF00F03EB
:1045400002EBC30393ED007B4FEA2A16F0068DEDD4
:10455000087B65D5244BDDE91001D3E90823FCF77E
:1045600001FBCDE9000106F00F0603251E4F4CE0CC
:1045700001230A930B9B534403F1010902934B4619
:10458000012BB8BF0123BAE70023B2E70023F0E70D
:104590000125002306930A954FF0FF3302939946B5
:1045A000002212230B92AAE701230A93F4E70123C6
:1045B000029399461A46F5E7013171605200A2E76D
:1045C00061436F63A787D23FB3C8608B288AC63F19
:1045D000FB799F501344D33F0000F07F695F0008D0
:1045E0000000F83F2860000800600008955F0008A0
:1045F000F10708D5DDE90801D7E90023FCF788F9C0
:10460000CDE90801013576100837002EF0D1DDE93B
:104610000823DDE90001FCF7A5FACDE900011AE065
:104620000225A3E700F0A080CAF100069F4BA04F2F
:1046300006F00F0203EBC203D3E90023DDE910010A
:10464000FCF766F9CDE90001361100230225002EA2
:104650007FD1002BE1D10F9B002B00F08780DDE99B
:1046600000670022934B30463946FCF7C3FB002815
:104670007CD0B9F1000F79D0029B002B35DD0AF117
:10468000FF330893394600228B4B3046FCF740F944
:10469000CDE90001029F01352846FBF7F3FEDDE975
:1046A0000023FCF735F90022844BFBF79FFD0546FC
:1046B000A1F15076002F5DD10022814BDDE9000190
:1046C000FBF792FD2A463346CDE90001FCF7B0FB2B
:1046D000002840F088822A4606F10043DDE9000107
:1046E000FCF788FB002840F07C82DDE91023CDE94F
:1046F0000023159B002BC0F25081BAF10E0F00F37E
:104700004C816A4B03EBCA0393ED007B0B9B002BA0
:104710008DED027B80F2D880B9F1000F00F3D480D8
:1047200040F05E820022664B51EC170BFCF7F0F86C
:10473000DDE90023FCF772FB4F464E46002840F0AF
:10474000348231230BF101058BF800300AF1010AA4
:104750002FE2F20705D5D7E90023FCF7D9F8013598
:1047600001237610083772E7022574E7CDF820A000
:104770004F4691E74D4B03EBC70353E902010A9BF8
:10478000002B47D002460B4600204E49FCF7EAF9C1
:104790002A463346FBF728FDCDE90C015D46DDE9ED
:1047A0000001FCF765FB0646FBF76CFE02460B4674
:1047B000DDE90001FBF718FD303605F8016BDDE996
:1047C0000C23CDE90001FCF715FB002863D1DDE9DE
:1047D000002300203749FBF707FDDDE90C23FCF738
:1047E00009FB002840F0B780A5EB0B039F427FF741
:1047F0007CAF0022304BDDE90C01FCF789F8002288
:10480000CDE90C012C4BDDE90001FCF781F8CDE985
:104810000001C4E72A463346FCF77AF8CDE90C01DB
:104820000BEB07055E46DDE90001FCF721FB0746BF
:10483000FBF728FE303702460B46DDE90001FBF7A7
:10484000D3FC06F8017BAE42CDE900014FF0000237
:1048500026D11C4BDDE90C01FBF7C8FC02460B46D8
:10486000DDE90001FCF7E4FA002874D1DDE90C234E
:1048700000201449FBF7B8FC02460B46DDE90001B5
:10488000FCF7B8FA00283FF430AF15F8013C302BA4
:1048900005F1FF3202D0DDF820A04AE01546F4E72A
:1048A000054BFCF735F8CDE90001BCE728600008AE
:1048B000006000080000F03F0000244000001C40A1
:1048C000000014400000E03FDDE900675D46DDE9DF
:1048D000022330463946FCF745F9FCF7C9FA804611
:1048E000FBF7D0FDDDE90223FCF712F802460B4688
:1048F0003046394608F13006FBF776FC05F8016BC7
:10490000A5EB0B06B14502460B4639D1FBF76EFC11
:10491000DDE9022306460F46FCF78AFAC8B9DDE94D
:10492000022330463946FCF75BFA10B118F0010F4C
:104930000FD10499204600F096FB0023129A2B70A9
:104940000AF101031360219B002B00F041821D60DE
:104950003EE2CDF820A015F8012C392A05F1FF33ED
:1049600008D19B450AD1089B0133089330238BF86B
:1049700000305B461A7801321A708CE71D46EAE770
:1049800000229B4BFBF7C4FF0022002306460F4684
:10499000FCF726FA00289AD0CBE70A9A002A00F002
:1049A0008B80069A012A6EDC139A002A67D003F2E4
:1049B0003343079F059D059A01211A44204605921D
:1049C000984400F0F0FB0646002D0CDDB8F1000F16
:1049D00009DD4545059A2B46A8BF4346D21A0592E4
:1049E000ED1AA8EB0308079BEBB10A9B002B67D0DD
:1049F0008FB131463A46204600F074FC049A0146D5
:104A00000646204600F0D8FB04990890204600F0A6
:104A10002AFB089B0493079BDA1B04D004992046C9
:104A200000F060FC04900121204600F0BCFB0E9BCE
:104A30000746002B00F0D0811A460146204600F0C0
:104A400051FC069B012B074640DC009B002B39D113
:104A5000019BC3F31303002B36D1019B23F00043CA
:104A60001B0D1B052BB1059B0133059308F10108B4
:104A7000012307930E9B002B2AD1012030E0149BC9
:104A8000C3F1360395E7079B09F1FF37BB42BFBF70
:104A9000079B0797FA1A0E9BBBBF9B180E93DF1B51
:104AA0000027B9F1000FB5BF059B059DA3EB0905D4
:104AB0004B46B8BF00237EE7079F059D0A9E83E70C
:104AC000079AABE70023D4E7009BD2E700230793C4
:104AD0003B6907EB8303186900F017FBC0F1200066
:104AE000404410F01F0047D0C0F12003042B3BDDF1
:104AF000059BC0F11C000344059305448044059BBD
:104B0000002B05DD1A460499204600F039FC04907C
:104B1000B8F1000F05DD39464246204600F030FC72
:104B200007460F9B53B33946049800F07DFC0028DC
:104B300024DA00230A220499204600F0ABFA0A9BEB
:104B400004900AF1FF3A002B00F04D81002331461A
:104B50000A22204600F09EFA029B002B06464FDCFC
:104B6000069B022B4CDD11E0C9D0059A1C331A4478
:104B700005921D449844C2E70346F6E7B9F1000FD9
:104B800038DC069B022B35DDCDF80890029B63B91B
:104B900039460522204600F07DFA01460746049872
:104BA00000F042FC00283FF7CCAD0B9B5D466FEA5E
:104BB000030A4FF000093946204600F054FA002E4F
:104BC0003FF4B7AEB9F1000F05D0B14503D0494667
:104BD000204600F048FA3146204600F044FAA8E6A4
:104BE00000273E46E1E7DDF820A03E46A9E500BFEC
:104BF000000024400A9BCDF80890002B00F0FA80BA
:104C0000002D05DD31462A46204600F0B9FB064658
:104C1000079B002B4CD07168204600F0F0F93269F8
:104C200002320546920006F10C010C3000F0DCF96E
:104C300001222946204600F0A3FB009BCDF814B0CA
:104C400003F00103B1460793064639460498FFF77F
:104C5000A7FA4946054600F13008049800F0E4FB45
:104C6000324600903946204600F0F8FBC368024601
:104C700003BB01460890049800F0D6FB089A03464F
:104C800011462046089300F0EEF9089BA3B9069A56
:104C900092B9079A82B9B8F1390F29D0009B002B3D
:104CA00001DD05F13108059B5D1C83F8008082E77A
:104CB0003046C2E70123E3E7009A002A04DB25D14E
:104CC000069A1ABB079A0ABB002BECDD0122049955
:104CD000204600F055FB3946049000F0A5FB002863
:104CE00003DCE0D118F0010FDDD0B8F1390FD8D1D5
:104CF000059B059A5D1C3923137015F8013C392B6F
:104D000005F1FF324FD00133137054E7059A002BA1
:104D100002F1010506DDB8F1390FE9D008F101080B
:104D2000059BC2E7029A05F8018CA5EB0B039342A1
:104D300021D000230A220499204600F0ABF9B145A6
:104D400004904FF000034FF00A024946204605D177
:104D500000F0A0F981460646059576E700F09AF93D
:104D60003146814600230A22204600F093F9064688
:104D7000F2E74FF0000901220499204600F000FB01
:104D80003946049000F050FB0028B6DC02D118F040
:104D9000010FB2D115F8013C302B05F1FF327FF441
:104DA0000AAF1546F6E7934505D131230AF1010A0A
:104DB0008BF80030FFE615469FE7DFF864B007E0A8
:104DC000219BDFF860B01BB10BF10803219A13603F
:104DD000584617B0BDE8F08F069B012B7FF735AE24
:104DE0000E9B079349E6029B002B03DC069B022BDC
:104DF0003FF7CCAE5D4639460498FFF7D1F900F194
:104E0000300805F8018B029AA5EB0B039A42B0DD3E
:104E100000230A220499204600F03CF90490EAE7B6
:104E2000685F00088C5F0008002310B50446C0E9E5
:104E30000033836081814366C281C0E904338361AA
:104E4000194608225C30FEF72FFD054B6362054BC7
:104E5000A362054BE362054B2462236310BD00BFD0
:104E6000C1590008E35900081B5A00083F5A0008BE
:104E7000014900F085B800BF195D000870B54A1EF1
:104E8000682555430E4605F1740100F0EFFB04461A
:104E900040B10021C0E900160C30A06005F16802A5
:104EA000FEF702FD204670BD836910B5044633BB92
:104EB000C0E912330365124B124A1B6882629842A2
:104EC00004BF0123836100F01FF86060204600F0FA
:104ED0001BF8A060204600F017F80022E0600421D3
:104EE0006068FFF7A1FF01220921A068FFF79CFF7E
:104EF00002221221E068FFF797FF0123A36110BD92
:104F0000545F0008714E0008F8B51B4B1E68B3696A
:104F1000074613B93046FFF7C7FF4836D6E90134D4
:104F2000013B03D5336833B13668F7E7B4F90C5069
:104F30006DB16834F4E704213846FFF79FFF306015
:104F40000028F1D10C233B6004462046F8BD0B4BF2
:104F50006566C4E90055A560C4E90335C4E9055593
:104F60000822294604F15C00FEF79EFCC4E90D55B9
:104F7000C4E91255E9E700BF545F00080100FFFFD4
:104F80002DE9F8438046894600F14804002614B90B
:104F90003046BDE8F883D4E90175013F01D52468A6
:104FA000F5E7AB89012B07D9B5F90E30013303D0F2
:104FB00029464046C84706436835EEE7044B1B6860
:104FC000186A044B002808BF1846F030704700BF2D
:104FD0000C00002070000020024B0146186800F011
:104FE00045BB00BF0C00002010B5431E0A4491428F
:104FF00000D110BD11F8014B03F8014FF7E770B570
:10500000456A04460E463DB91020FFF7E5FF606291
:10501000C0E901550560C560656AEB6883B1636AE4
:10502000DB6853F82600B8B9012101FA06F56A1DBC
:105030009200204600F0BEFA60B1C0E901650EE0C2
:1050400021220421204600F0B5FA636AE860DB689B
:10505000002BE4D1002070BD026843F82620002315
:10506000C0E90333F7E770B5446A06460D463CB91C
:105070001020FFF7B1FF7062C0E901440460C46012
:105080003DB1736A6A68DB6853F82210296043F8FF
:10509000225070BD2DE9F0410D691F4606460C46B1
:1050A00001F1140C0023DCF8000081B202FB017155
:1050B0000F0C000C02FB007089B2013301EB0041C0
:1050C0009D424FEA10474CF8041BECDCD7B1A368B3
:1050D000AB4212DC616830460131FFF790FF226974
:1050E000023204F10C01804692000C30FFF77CFF85
:1050F00021463046FFF7B7FF444604EB85030135F0
:105100005F6125612046BDE8F081020C1204034670
:10511000B2B90304102013F07F4F04BF1B02083004
:1051200013F0704F04BF1B01043013F0404F04BF55
:105130009B000230002B06DB5B0003D5013070477B
:105140000020E8E720207047036813F007020146BB
:105150000BD0DA0723D4980749BF5B089B080120CE
:105160000B605CBF0B600220704798B2A8B91B0CA3
:10517000102013F0FF0F04BF1B0A08301A0704BFEA
:105180001B0904309A0704BF9B080230DA0702D4D7
:105190005B0806D001300B6070471046E9E700203D
:1051A00070472020704710B50C460121FFF727FFFC
:1051B00001224461026110BD2DE9F74F14460A69CE
:1051C00023699A42B8BF0B468846BCBFA0461C461E
:1051D000D8F81070D4F81090D8F80830D8F8041027
:1051E00007EB0906B342B8BF0131FFF708FF00F132
:1051F000140505EB860E2B460022734516D304F1E9
:10520000140208F1140102EB890301EB87070093F4
:10521000009B019293420CD8002E03DD5EF8043D02
:10522000002B5DD0066103B0BDE8F08F43F8042B7E
:10523000E3E7B2F800B0BBF1000F23D08946AC46DB
:105240004FF0000859F8044BDCF800A0A3B21FFA95
:105250008AFA0BFB03A34FEA144ADCF800404344EC
:105260004FEA14480BFB0A8404EB1344E2469BB25A
:1052700043EA04434F454FEA14484AF8043B2BD80D
:10528000CCF80480019BB3F802A00432BAF1000FFD
:1052900020D02B688946A8464FF0000BB9F800C013
:1052A000B8F802400AFB0C445C44C4469BB243EA93
:1052B00004434CF8043B59F8043BB8F804B01B0C09
:1052C0000AFB03B303EB14434F454FEA134B05D8D6
:1052D000C8F8043004359BE7D446B3E7E046DDE781
:1052E000013E99E72DE9F843154612F00302064600
:1052F0000F4607D0013A214C002354F82220FFF733
:10530000C9FE0746AD1035D0746A3CB91020FFF7CE
:1053100063FE7062C0E901440460C460D6F8248072
:10532000D8F808404CB940F271213046FFF73BFFF6
:105330000023C8F80800044603604FF00008EB079C
:105340000AD5394622463046FFF736FF39468146B0
:105350003046FFF788FE4F466D100BD0206838B9F5
:10536000224621463046FFF727FF2060C0F8008024
:105370000446E4E73846BDE8F88300BFF060000863
:105380002DE9F0470C464FEA621A236949680AEB97
:105390000309A3680746164609F10105AB4232DB53
:1053A0003846FFF72CFE0023804600F114011A4610
:1053B00053452BDB20692AEAEA7A04F1140316F03C
:1053C0001F0201EB8A0103EB800C25D0C2F1200EF5
:1053D00000201E688A46964030434AF8040B53F872
:1053E000040B9C4520FA0EF014D8486008B109F16E
:1053F0000205013D3846C8F810502146FFF733FE3C
:105400004046BDE8F08701315B00C7E741F8232043
:105410000133CDE75146DCE7043953F8042B41F85A
:10542000042F9C45F9D8E4E703690A699B1A30B553
:105430000CD19200143014318418114454F8045DD6
:1054400051F8042D954203D005D30123184630BDF1
:10545000A042F3D3FAE74FF0FF33F7E72DE9F04727
:105460000D460746114628461446FFF7DDFF061E87
:1054700008D131463846FFF7C2FD0123C0E90436A2
:10548000BDE8F087A4BF23462C4638466168A6BF16
:105490001D4600260126FFF7B2FD2B69C66026696E
:1054A00005F1140904F1140202EB860709EB8308E5
:1054B00000F114054FF0000E52F804AB59F8044BFC
:1054C0001EFA8AF1A3B2C91A230CC3EB1A4303EBE9
:1054D000214389B24FEA234EC84541EA034394462B
:1054E00045F8043BE8D8BC4504D355F8043D83B1E6
:1054F0000661C5E75CF8041B1EFA81F31A1402EB7F
:1055000011429BB243EA02434FEA224E45F8043B64
:10551000E9E7013EE9E72DE9F7430E46012159ECA1
:10552000108B1546FFF76BFDC9F30A540746C9F304
:10553000130334BB0193B8F1000327D002A840F84D
:10554000083DFFF701FE0099F0B1019AC0F1200378
:1055500002FA03F30B43C2407B610192019BBB61E2
:10556000002B14BF022101213961C4B1A4F23344DC
:1055700004443460C0F135002860384603B0BDE80B
:10558000F08343F48013D5E77961E7E701A8FFF7DB
:10559000DBFD019B7B61012139612030E5E707EBF1
:1055A0008103A0F2324030601869FFF7AEFDC0EB16
:1055B0004110E1E738B502FB01F4214600F056F84E
:1055C000054618B122460021FEF76EF9284638BD7F
:1055D00038B50546002945D051F8043C0C1F002B76
:1055E000B8BFE41800F04AFC1F4A1368104633B9EC
:1055F000636014602846BDE8384000F040BCA34218
:105600000CD921686218934204BF1A685B68636012
:1056100004BF521822600460ECE713465A680AB1CE
:10562000A242FAD919685818A0420BD12068014447
:10563000581882421960DDD1106852685A600144DE
:105640001960D7E702D90C232B60D3E72068211813
:105650008A4204BF11685268626004BF0918216061
:105660005C60C7E738BD00BF0002002070B5CD1CEC
:1056700025F0030508350C2D38BF0C25002D0646F6
:1056800001DBA94203D90C233360002070BD00F078
:10569000F5FB214A1468214691B9204C23681BB9B7
:1056A000304600F07DF920602946304600F078F958
:1056B000431C24D10C233360304600F0E0FBE4E7C8
:1056C0000B685B1B18D40B2B0FD90B60CD50CC187B
:1056D000304600F0D4FB04F10B00231D20F007003E
:1056E000C31AD3D05A42E250D0E78C424B6816BF5F
:1056F000636013600C46EBE70C464968CCE7C41CBA
:1057000024F00304A04205D0211A304600F048F9E5
:105710000130CFD02560DBE700020020040200202A
:105720009368013B002B10B4936008DA9469A3429C
:1057300001DB0A2903D15DF8044B00F085B9136839
:10574000581C1060197008465DF8044B7047F8B596
:1057500006460F461446D518AC4201D1002007E09A
:105760003A4614F8011B3046FFF7DAFF431CF3D129
:10577000F8BD00002DE9F04F0C469DB017461D46C0
:10578000064618B183690BB9FFF78EFB7C4B9C4230
:1057900058D17468A38918075ED52369002B5BD0A4
:1057A0000023099320238DF8293030238DF82A30E7
:1057B00003954FF0010BB846454615F8013B0BB178
:1057C000252B54D1B8EB070A0BD053463A46214655
:1057D0003046FFF7BCFF013000F0C280099B534404
:1057E000099398F80030002B00F0BA8000234FF0A6
:1057F000FF32CDE90523049307938DF853301A93B4
:10580000A846052218F8011B5E48FBF731F8049BF7
:1058100078BBD90644BF20228DF853201A0744BF15
:105820002B228DF853202A782A2A2AD0079AA846B4
:1058300000200A25414611F8013B303B092B69D96C
:1058400060B324E0504B9C4201D1B468A2E74F4BB7
:105850009C4208BFF4689DE72146304600F058F9A5
:1058600000289DD04FF0FF301DB0BDE8F08FA84656
:10587000A2E7444A801A0BFA00F018430490454608
:10588000BEE7039A111D12680391002A01DB0792FB
:1058900004E0524243F002030792049398F8003068
:1058A0002E2B0ED198F801302A2B38D1039B1A1DCC
:1058B0001B680392002BB8BF4FF0FF3308F10208BA
:1058C0000593334D98F8001003222846FAF7D0FFCD
:1058D00040B14023401B03FA00F0049B034308F14E
:1058E0000108049398F800102A488DF82810062221
:1058F00008F10107FAF7BCFF002837D0264B1BBB85
:10590000039B073323F0070308330393099B4B449E
:10591000099350E705FB0232012088468AE70023FD
:1059200008F10108059319460A25404610F8012B95
:10593000303A092A03D9002BC3D00591C1E705FBF2
:10594000012101238046F0E703AB00932246134B6D
:1059500004A93046FEF744F8B0F1FF3F8146D5D1A7
:10596000A3895B063FF57EAF09987DE703AB009303
:1059700022460A4B04A93046FEF7E8FAECE700BFDE
:10598000BC5F0008FC600008DC5F00089C5F00084A
:105990000261000806610008E13900084F5700085D
:1059A00038B5064C0023054608462360FDF7D4FEB3
:1059B000431C02D1236803B12B6038BD740300205F
:1059C00010B50C46B1F90E1000F05AFA0028ABBF22
:1059D000636DA3891B1823F48053ACBF6365A38157
:1059E00010BD2DE9F0411F468B89DB0505460C46AD
:1059F000164605D502230022B1F90E1000F0B6F9C3
:105A0000A389B4F90E1023F48053A38132463B4698
:105A10002846BDE8F04100F069B810B50C46B1F970
:105A20000E1000F0A3F9431CA38915BF606523F491
:105A3000805343F48053A38118BFA38110BDB1F9F3
:105A40000E1000F0D3B80000F8B50E461446054617
:105A500018B183690BB9FFF727FA214B9C422AD171
:105A60006C68A369A360A3891A072ED5236963B361
:105A700023692068C01A6369F6B28342374604DCA2
:105A80002146284600F048F928BBA368013BA360E3
:105A900023685A1C22601E7063690130834204D05F
:105AA000A389DB0719D50A2E17D12146284600F015
:105AB00033F990B10FE00B4B9C4201D1AC68D0E7B9
:105AC000094B9C4208BFEC68CBE72146284600F012
:105AD0001FF80028CCD04FF0FF373846F8BD00BF84
