:020000040800F2
:1000000000000220491F0008991F0008991F0008DE
:10001000991F0008991F0008991F000800000000A0
:10002000000000000000000000000000551E000855
:10003000991F000800000000591E00085D1E0008FE
:10004000991F0008991F0008991F0008991F0008B0
:10005000991F0008991F0008991F0008991F0008A0
:10006000991F0008991F0008991F0008991F000890
:10007000991F0008991F0008991F0008991F000880
:10008000991F0008991F0008991F00080000000030
:10009000000000000000000000000000991F0008A0
:1000A000991F0008991F0008991F0008991F000850
:1000B000991F0008991F0008991F0008991F000840
:1000C000991F0008991F0008991F0008611E000869
:1000D000991F0008991F0008991F000800000000E0
:1000E000991F0008991F0008991F000800000000D0
:1000F000000000000000000000000000991F000840
:1001000000000000991F0008991F0008991F0008AF
:1001100000000000000000000000000000000000DF
:100120006D1E0008991F0008791E0008991F00081D
:10013000991F0008000000000000000000000000FF
:10014000000000000000000000000000991F0008EF
:10015000991F0008991F0008991F0008991F00089F
:10016000991F0008991F000800000000000000000F
:10017000000000000000000000000000000000007F
:1001800000000000991F00080000000000000000AF
:08019000991F0008991F0008E7
:1001A00010B5054C237833B9044B13B10448AFF3B1
:1001B00000800123237010BD7000002000000000AB
:1001C000C82D000808B5034B1BB103490348AFF322
:1001D000008008BD0000000074000020C82D000849
:1001E00053B94AB9002908BF00281CBF4FF0FF319E
:1001F0004FF0FF3000F072B9ADF1080C6DE904CE9C
:1002000000F006F8DDF804E0DDE9022304B07047F1
:100210002DE9F047089E04468846002B4BD18A42C0
:10022000154667D9B2FA82F24AB1C2F1200701FA43
:1002300002F320FA07F7954047EA030894404FEA93
:10024000154E230CB8FBFEF71FFA85FC0EFB178832
:1002500043EA084307FB0CF1994209D9EB1807F16F
:10026000FF3080F01B81994240F21881023F2B44FD
:100270005B1AA4B2B3FBFEF00EFB103344EA034456
:1002800000FB0CFCA44509D92C1900F1FF3380F0C8
:100290000781A44540F2048102382C4440EA07401B
:1002A000A4EB0C0400271EB1D4400023C6E9004390
:1002B0003946BDE8F0878B4209D9002E00F0EB806B
:1002C0000027C6E9000138463946BDE8F087B3FA91
:1002D00083F7002F47D18B4202D3824200F2FA808B
:1002E000841A61EB030301209846002EE0D0C6E992
:1002F0000048DDE702B9FFDEB2FA82F2002A40F0E0
:100300008F80491B4FEA154E1FFA85F80127B1FB74
:10031000FEFC230C0EFB1C1143EA014308FB0CF10D
:10032000994207D9EB180CF1FF3002D2994200F242
:10033000CD808446591AA3B2B1FBFEF00EFB101417
:1003400043EA044408FB00F8A04507D92C1900F142
:10035000FF3302D2A04500F2B6801846A4EB080491
:1003600040EA0C409FE7C7F1200CBB4022FA0CFE8C
:100370004EEA030E01FA07F420FA0CF521FA0CF309
:100380004FEA1E482543B3FBF8F92C0C08FB193340
:100390001FFA8EFA44EA034309FB0AF49C4202FA6C
:1003A00007F200FA07F10BD91EEB030309F1FF3046
:1003B00080F087809C4240F28480A9F10209734456
:1003C0001B1BADB2B3FBF8F008FB103345EA034446
:1003D00000FB0AFAA24508D91EEB040400F1FF3322
:1003E0006BD2A24569D90238744440EA0940A0FBA7
:1003F0000289A4EB0A044C45C2464B4654D351D063
:10040000002E69D0B1EB0A0564EB030404FA0CFC7E
:10041000FD40FC404CEA0505C6E90054002747E7CB
:10042000C2F1200320FA03F7954001FA02F021FA05
:1004300003F34FEA154E3843010CB3FBFEF71FFAE6
:1004400085F80EFB173341EA034107FB08F38B42A3
:1004500004FA02F407D9691807F1FF3C2FD28B4246
:100460002DD9023F2944CB1A81B2B3FBFEF00EFB1B
:10047000103341EA034100FB08F38B4207D96918A6
:1004800000F1FF3C17D28B4215D902382944C91A12
:1004900040EA07473BE73746304609E70746E7E6C5
:1004A0001846FBE64145ABD2B8EB020A69EB0E02F7
:1004B00001381346A4E76046E9E7184695E7674622
:1004C000D1E781467CE702382C4447E7ACF1020CC7
:1004D0002B442FE7384608E73746E9E6704700BF68
:1004E00001F0FF01102A2BDB10F0070F08D010F8E5
:1004F000013B013A8B422DD010F0070F42B3F6D1E9
:10050000F0B441EA012141EA014122F007047FF001
:1005100000070023F0E80256083C85EA010586EA58
:10052000010685FA47F5A3FA87F586FA47F6A5FA94
:1005300087F68EB9EED1F0BC01F0FF0102F00702A0
:1005400032B110F8013B013A83EA010313B1F8D14B
:100550000020704701387047002D06BF354603382C
:10056000073815F0010F07D1013015F4807F02BF65
:10057000013015F4C03F0130F0BC0138704700BFB6
:1005800070B50E4B0E4D1B682A7806464FF47A70F4
:10059000B0FBF2F0B3FBF0F000F0A8F808B90F2EB2
:1005A00001D9012070BD0446024631464FF0FF30AC
:1005B00000F058F86E60204670BD00BF08000020B3
:1005C0000000002008B50B4B1A6842F400721A6054
:1005D0001A6842F480621A601A6842F480721A60E3
:1005E000032000F02DF80020FFF7CAFF01F060FBA8
:1005F000002008BD003C0240034A044B11681B78F0
:100600000B441360704700BF9C00002000000020D6
:10061000014B1868704700BF9C00002038B50446A5
:10062000FFF7F6FF631C054602D0044B1B781C4401
:10063000FFF7EEFF401BA042FAD338BD00000020B8
:10064000074AD3684FF6FF010B40000243F0BF6337
:1006500000F4E06043F400330343D360704700BF0D
:1006600000ED00E0184BDB68C3F3022330B4C3F1A4
:100670000705042D03F1040428BF0425062C19D90D
:10068000033B4FF0FF349C4022EA04044FF0FF325A
:10069000AA4021EA020101FA03F2224312010028D2
:1006A000D2B20ADB00F1604000F5614080F800231F
:1006B00030BC704700242346E8E7044B00F00F00ED
:1006C00003441A7630BC704700ED00E0FCEC00E01B
:1006D000002807DB00F01F0101234009024A8B407C
:1006E00042F82030704700BF00E100E00138B0F16F
:1006F000807F0ED2084B10B4084C5860F02084F86C
:1007000023000022072110469A6019605DF8044B0F
:1007100070470120704700BF10E000E000ED00E0EE
:10072000F8B50446FFF774FF002C54D0022223686A
:1007300084F835201A68002122F0010284F8341070
:1007400005461A6005E0FFF763FF401B05283BD80C
:1007500023681A68D107F6D4D4E90126D4E90351F5
:10076000324360691F682A43D4E906650A4302439D
:10077000216A354832432A430A43616A38400429D2
:1007800042EA000229D01A605A6922F00702114396
:10079000DAB22E485961103AA0FB021212092C4914
:1007A00023F47F73895CE16523F00303032A88BF88
:1007B00004333F228A4001250021A36508469A6040
:1007C000616584F83550F8BD032320226265184620
:1007D00084F83530F8BD0120F8BDD4E90B010143A0
:1007E0000A43A56A1A605A6945F0040122F007021B
:1007F00011430028CCD07EB1B6F5005F16D0022D93
:1008000003D9032DC4D1C201C2D5012340226265A0
:10081000184684F83530F8BD012D03D0F3D3022DEE
:10082000B6D1F0E7B0F1C07FB2D1EEE7032DAFD87B
:1008300001A252F825F000BF0B08000807080008C5
:100840000B080008250800083F8010F0ABAAAAAAF0
:10085000E02D0008F0B490F83440012C35D090F829
:100860003540866D0125AC4280F8345027D10468AC
:100870000227002580F8357045652568876825F4CE
:100880008025402F256063600ABFA260A160E160FF
:10089000C16D18BFE2603F238B40026CB3602368D8
:1008A00043F0160323601AB1236843F00803236062
:1008B000236843F0010323600020F0BC704700234D
:1008C00080F83430F0BC022070470220F0BC704742
:1008D00090F83530022B03D0802343650120704708
:1008E0000268052380F83530136823F00103136094
:1008F00000207047F0B583B00023876D0193C36D6E
:100900003D68654908229A402A4204460E6803D091
:1009100001680868400759D401229A402A4203D04E
:1009200021684969080674D404229A402A4203D0F7
:1009300021680968890766D410229A402A4203D0A8
:100940002168086800074BD420229A402A4214D01C
:1009500021680868C00610D5BA6094F83520052AC9
:1009600063D00B6813F4802F0B687ED0190340F11D
:100970008980E36B0BB120469847636D23B3636DA9
:10098000DA071AD50523226884F8353013684349FD
:1009900023F00103A1FB06161360B60A02E01368F8
:1009A000DB0704D5019B0133B3420193F7D9002241
:1009B000012384F8342084F83530E36C23B12046D9
:1009C00003B0BDE8F040184703B0F0BD086820F060
:1009D00004000860BA60626D42F0010262659BE744
:1009E000BA600A6812F4802F0A6818D1D20503D4BD
:1009F0000A6822F008020A60226C002AA4D020466D
:100A00009047E36DA0E7BA60626D42F00402626550
:100A100092E7BA60626D42F00202626584E71103F8
:100A2000EAD5A26C002AEAD18EE70A68206C22F08F
:100A300016020A604A6922F080024A6138B30A68E5
:100A400022F008020A603F22216D02FA03F300201F
:100A50000122BB6084F8340084F835200029B3D02B
:100A6000204603B0BDE8F040084713F4807380D1FE
:100A70000A68012022F010020A6084F8343084F8F9
:100A8000350076E7636C002B7FF475AF75E7A26CD9
:100A9000002AD4D1D7E700BF08000020B5814E1B43
:100AA0002DE9F04FD1F80090DFF8A0E185B00025E6
:100AB0004FF0010B8A4602E00135102D70D00BFA81
:100AC00005F309EA03029342F6D1DAF804106E0046
:100AD00001F0030303245F1EB440E443012F00949C
:100AE00061D9032B72D10768009CB3403C4023437B
:100AF000CF000360E0D5504C00230393636C43F4B4
:100B000080436364636C25F0030606F1804603F4BA
:100B1000804306F59C36039305F00304039BB768F6
:100B2000A4000F23A34027EA0303444FB84211D087
:100B300007F58067B84270D0414FB84271D0414F3D
:100B4000B84273D0404FB8420CBF0427072707FABA
:100B500004F42343B360DEF80030D443CE0354BF23
:100B600023401343CEF80030DEF804308F0354BF27
:100B700023401343CEF80430DEF80830CE0254BFD1
:100B800023401343CEF80830DEF80C30890205F11B
:100B9000010554BF23401343102DCEF80C308ED1E5
:100BA00005B0BDE8F08F876807EA040CDAF80C702E
:100BB000B74047EA0C078760D0F804C0C1F30017BC
:100BC0002CEA020CAF4047EA0C074760C768009C5C
:100BD00007EA040CDAF80870B74047EA0C07022B62
:100BE000C76080D14FEAD50800EB880805F0070CF4
:100BF000D8F8204001944FEA8C0C0F2404FA0CF72B
:100C0000019C24EA0707DAF81040019704FA0CF770
:100C1000019C2743C8F8207065E70BFA04F42343CE
:100C200098E7022707FA04F4234393E7032707FA18
:100C300004F423438EE700BF003802400000024066
:100C400000080240000C024000100240003C01403D
:100C500002B9090481617047002800F032812DE952
:100C6000F0410368DD0782B004462FD5AC498A689D
:100C700002F00C02042A00F0EA808A6802F00C02FA
:100C8000082A00F0E0806368B3F5803F00F0E98057
:100C9000B3F5A02F00F07E81A14D2A6822F48032A6
:100CA0002A602A6822F480222A60002B40F0DE802D
:100CB000FFF7AEFC064605E0FFF7AAFC801B6428A0
:100CC00000F2F2802B689B03F6D423689F0775D44B
:100CD0001A0715D56369002B00F0A580914B904D44
:100CE00001221A60FFF794FC064605E0FFF790FC2E
:100CF000801B022800F2D8806B6F9B07F6D5236813
:100D000058073BD5864A136C13F0805340F0DB80C4
:100D10000193136C43F080531364136C03F08053FE
:100D20000193019B0126804D2A68D10540F1AC80DA
:100D3000A368012B00F0C980052B00F03581784DA8
:100D40002A6F22F001022A672A6F22F004022A6722
:100D5000002B40F0BF80FFF75BFC41F288378046F4
:100D600006E0FFF755FCA0EB0800B84200F29C80BB
:100D70002B6F9807F5D4002E40F0DC80A069C8B135
:100D8000674DAA6802F00C02082A00F0D980674A71
:100D900000210228116000F01181FFF739FC2C4678
:100DA000054604E0FFF734FC401B02287CD823688A
:100DB0009B01F7D4002002B0BDE8F081584A916849
:100DC00011F00C0F24D0916801F00C0108291CD0FF
:100DD000E368002B00F09280554B514D01221A60C0
:100DE000FFF716FC064604E0FFF712FC801B022802
:100DF0005AD82B689807F7D52B68226923F0F80397
:100E000043EAC2032B60236862E752685602DFD4CC
:100E1000434A126895074BD5E268012A48D0012061
:100E200002B0BDE8F0813F4A3D4D1360FFF7F0FB93
:100E3000064604E0FFF7ECFB801B022834D86B6FFA
:100E40009F07F7D45BE74A6850027FF51CAF344A2E
:100E5000126891037FF53AAF6268002A7FF436AFDB
:100E6000DDE72F4A136843F480331360FFF7D0FBAC
:100E70002B4D064604E0FFF7CBFB801B642813D8FC
:100E80002B689A03F7D520E72A6842F480722A601B
:100E9000FFF7BEFB07462B68DA053FF549AFFFF7C2
:100EA000B7FBC01B0228F6D9032002B0BDE8F081D1
:100EB0001B4920690A6822F0F80242EAC0020A606F
:100EC00006E70120704700262DE7154A136F43F00F
:100ED00001031367FFF79CFB114D804641F28837F1
:100EE00005E0FFF795FBA0EB0800B842DCD82B6FBC
:100EF0009B07F6D5002E3FF441AF1BE00C4A084D8E
:100F00001360FFF785FB064604E0FFF781FB801BBB
:100F10000228C9D82B689907F7D42368D8E600BF00
:100F200000380240800E4742007000406000474297
:100F300000004742384A136C23F0805313641DE7C6
:100F400001283FF46DAF6B68E26903F480019142C0
:100F50007FF465AF226A03F03F0191427FF45FAFF7
:100F600047F6C072616A1A40B2EB811F7FF457AF37
:100F7000A26A5208013A03F44031B1EB024F7FF408
:100F80004EAFE26A03F07063B3EB026F14BF01204F
:100F9000002045E7204B1A6842F480221A601A6844
:100FA00042F480321A6061E71B4B1A6F42F0040270
:100FB0001A671A6F42F001021A678BE7FFF728FBE6
:100FC000064605E0FFF724FB801B02283FF66CAFC6
:100FD0002B689901F6D4D4E90736D4E90902E16A0D
:100FE0000D4C334343EA8013520843EA0163013A4C
:100FF0000A4943EA024301226B600A60FFF708FBDB
:10100000054605E0FFF704FB401B02283FF64CAF06
:1010100023689A01F6D5CDE60038024060004742C9
:10102000174908B58B6803F00C03042B1BD0082B61
:1010300017D14A684B6813F4800302F03F0214D1C1
:1010400049681048C1F38811A1FB0001FFF7C8F8F7
:101050000B4B5B68C3F3014301335B00B0FBF3F060
:1010600008BD084808BD084808BD4B680648C3F3DA
:101070008813A3FB00010023FFF7B2F8E8E700BFE5
:10108000003802400024F40000127A0060B1494A9E
:10109000136803F007038B4208D2CBB213701368B6
:1010A00003F007038B4201D00120704703682DE94C
:1010B000F0419D0714D55C0704D53F4CA26842F46B
:1010C000E052A2601A0704D53B4CA26842F4604289
:1010D000A260394C8568A26822F0F0022A43A2601F
:1010E000DF0704460D4622D54268012A57D0931ED9
:1010F000012B314B1B6859D9990725D52E4EB36862
:1011000023F003031343B360FFF782FA41F28837F9
:10111000804605E0FFF77CFAA0EB0800B84243D810
:10112000B368626803F00C03B3EB820FF2D1214A7B
:10113000136803F00703AB4209D9EBB213701368CD
:1011400003F00703AB4202D00120BDE8F081236821
:101150005A0706D51849E0688A6822F4E05202432B
:101160008A601B0712D4FFF75BFF134B134C9B687D
:101170001349144AC3F30313E35C20FA03F308682A
:101180001360FFF7FDF90020BDE8F0810A4A2169EC
:10119000936823F4604343EAC1039360E3E7064B9B
:1011A0001B689E03AAD4CFE70320EDE79801A5D4DE
:1011B000CAE700BF003C024000380240E82D0008AA
:1011C0000400002008000020044B054A9B680549E4
:1011D000C3F382230868D35CD840704700380240CC
:1011E000F82D000808000020044B054A9B680549BB
:1011F000C3F342330868D35CD840704700380240DC
:10120000F82D0008080000202DE9F04182B01E46AC
:1012100014460D460746FFF7FBF92644361AFFF73A
:10122000F7F9264B1B68C3F3CB3306FB03F3804669
:101230000193386801E0631C07D1836835EA030332
:10124000F9D0002002B0BDE8F081FFF7E1F9A0EB92
:101250000800B04208D2019A019B002A03F1FF3333
:1012600008BF00260193E4E7D7E900315A68B1F5D9
:10127000827F22F0E0025A6014D0BA6AB2F5005FB1
:1012800007D00122002387F8512087F8503003202F
:10129000D8E71A6822F400521A601A6842F4005221
:1012A0001A60EEE7BA68B2F5004F02D0B2F5806F6F
:1012B000E3D11A6822F040021A60DEE7080000203D
:1012C00070B54568B5F5827F0446134606D00A46D8
:1012D0000121FFF799FF98B9002070BD8268B2F52F
:1012E000004F13D0B2F5806F15D10668356825F030
:1012F00040050A4635600121FFF786FF0028EBD044
:10130000636D43F020036365032070BD00680268CD
:1013100022F0400202600A4620468021FFF774FF57
:101320000028EDD10020D8E7164B30B51B68164DCC
:10133000A5FB03535B0D4FF47A7505FB03F345687A
:1013400083B0B5F5827F0446019307D10CE0019B81
:101350002268013B019393681B0602D5019B002B79
:10136000F5D1002003B030BD13460A468021FFF7B7
:101370004BFF0028F5D0636D43F020036365032025
:10138000F0E700BF08000020819F5E16002853D0C0
:10139000F8B5456A002D49D00023C0E9043390F820
:1013A00051200446002002F0FF01A062002A45D02F
:1013B000D4E90136E168D4F818C003F4827206F467
:1013C00004462369324301F400610A4303F0020139
:1013D00063690A4303F001031A43D4E9073603F0B3
:1013E000380E0CF4007321681343022284F8512054
:1013F00043EA0E0306F080064FEA1C4733430E68AB
:1014000005F0100507F004022A43034326F04006C6
:101410000E600B604A60CB69002223F40063012553
:10142000CB611046626584F85150F8BD4368B3F54E
:10143000827FB4D0C561B2E701207047204684F8AE
:10144000501000F053FCD4E9095303F40050AFE707
:1014500038B590F85040012C4ED0044690F8510019
:101460000125C0B2A84284F850500DD06568B5F58A
:10147000827F04D00220002384F8503038BDA56854
:10148000002DF7D10428F5D1002933D0002A31D01E
:10149000002B2FD094F85100216304281CBF052095
:1014A00084F8510000206065E386E38794F851508A
:1014B000A386042DA387C4E9100008BF2149E06C6E
:1014C0000EBF214B2149224BA263224DC0E90F31AF
:1014D0002168E38FC56400250C310565FFF7BAF973
:1014E00060B1636D012243F010036365104684F818
:1014F0005120C0E70120BEE7022038BD2268A56C5C
:101500005368216B43F001035360E38E2864E86362
:10151000C5E913000C322846FFF79CF90028E0D1FA
:1015200023681A68520603D41A6842F040021A600F
:101530005A6842F020025A605A6842F002025A6029
:1015400099E700BF61150008A11500086D15000896
:10155000091600087D150008704700BF704700BFDE
:1015600008B5806BFFF7FAFF08BD00BF08B5806BB8
:1015700000F058FA08BD00BF704700BF08B5836B84
:1015800019684A6822F003024A605A6D012142F04C
:1015900010025A65184683F85110FFF7EDFF08BD99
:1015A00038B50546846BFFF733F82B681B68DB05FD
:1015B00019D42368A268596821F020015960B2B19A
:1015C000596821F001015960024664212046FFF765
:1015D00077FE08B12023636501230022E28784F8A7
:1015E0005130636D63B92046FFF7B6FF38BD6268BE
:1015F000B2F5827FE4D15A6822F003025A60E3E731
:101600002046FFF7B9FF38BD38B50546846BFEF7B5
:10161000FFFF2B681B68DB051BD421684B6823F098
:10162000200302464B6020466421FFF77DFE18B17F
:10163000636D43F02003636521684B68002223F04B
:10164000030301204B60E286E28784F85100636D5A
:101650001BB9204600F0E8F938BD2046FFF78CFFA3
:1016600038BD00BF30B501684D688B68C3F3801486
:1016700085B0024654B913F0010F07D015F0400FA2
:1016800004D0036C05B0BDE830401847980707D573
:10169000280605D5536C104605B0BDE83040184704
:1016A000C3F3401000283DD1002C4ED0AC0637D5F6
:1016B00092F85140032C5AD0546D44F00404546500
:1016C0000090C8680090886800900098C3F30023D9
:1016D000002B3ED1536D1BB34B68144623F0E0033F
:1016E0000122AD074B6084F8512048D04B68E06C74
:1016F00023F003034B6040B12A4B0365FFF7E8F882
:1017000018B1636D43F040036365A06C40B1254B95
:101710000365FFF7DDF818B1636D43F040036365BF
:1017200005B030BDA806FBD5ECB9C3F30023506D5E
:10173000002440F001005065029488680290086817
:1017400020F0400008600298C2E7DC05E8D5AB064F
:10175000E6D5536D002043F00803536503908B6872
:101760000393039BB6E792F8510003280BD10023A3
:101770000193CB6801938B680193019BD0E72046CE
:10178000FFF7FAFECCE7506D002440F004005065EE
:101790000094C868009088680090C3F30023009804
:1017A000C5E700BFA917000808B5836B0022DA87D8
:1017B0001846DA86FFF7E0FE08BD00BF70B50446A4
:1017C0002F482268E5681169A368266921F4405111
:1017D000294311616569D16833432B43E56921F4DD
:1017E000164121F00C012B430B43D3605369A169CF
:1017F00023F440730B438242536105D0214B9A423C
:1018000002D0FFF7E1FC01E0FFF7EEFCE2691921ED
:10181000B2F5004FD4E90043A0FB010113D09A00B8
:101820009B0FFEF7DDFC1849A1FB0032520964232F
:1018300003FB12031B013233A1FB0313120102EB62
:101840005313A36070BDDA184FF0000646EB060391
:10185000FEF7C6FC0C4DA5FB00325109642303FBC7
:101860001103DB003233A5FB03235B0903F00702FE
:101870005B0002EB011203F4F8731344A36070BD24
:1018800000100140001401401F85EB512DE9F0418B
:1018900007460E4690461D463C6801E06B1C06D18B
:1018A000206836EA0003F9D10020BDE8F08135B1A7
:1018B000FEF7AEFEA0EB08008542EDD23C68E3687F
:1018C00023F4D073E3606369202223F00103002135
:1018D0006361032087F83D2087F83C1087F83E209D
:1018E000E3E700BF60B338B590F83D30044603F03D
:1018F000FF0203B32268242384F83D30D36823F425
:101900000053D3602046FFF759FF23681A6922F479
:1019100090421A615A6922F02A025A61DA68002557
:10192000202142F40052DA602846256484F83D10F4
:1019300084F83E1038BD80F83C2000F055FAD9E715
:10194000012070472DE9F0410D4690F83D10202907
:1019500082B03FD1002D41D00192002A3ED01E46D8
:1019600090F83C30012B044634D0212301214FF064
:101970000008C0F8408080F83C1080F83D30FEF749
:1019800047FEA368019AA284B3F5805F0746E2840C
:1019900036D0E38C00229BB284F83C2053B923E07C
:1019A00015F8012B5A60E38C013B9BB2E384E38C76
:1019B0009BB2CBB133463A4680212046FFF766FF03
:1019C00080B92368002DEBD138F8022BC2F308024E
:1019D0005A60E8E7022002B0BDE8F081012002B0C1
:1019E000BDE8F0810320F6E733463A464021204621
:1019F000FFF74CFF0028F5D1202384F83D30EAE7BB
:101A00002369002BC5D1A8461D46C2E710B54FF487
:101A10007A731446024892B2FFF794FF204610BD35
:101A200000010020704700BF02680C4B9A4200D0B2
:101A3000704710B50A4A0B4C117853780A4803EBEB
:101A40000123C3F30D03102101222380FFF700F9C6
:101A500021880648BDE8104000F0D2BA00300140AD
:101A6000A4000020A401002000000240002E000875
:101A700030B5002395B0CDE90B33CDE90933CDE97D
:101A80000433CDE906331E4901930D930393086C8B
:101A90001C4A40F080500864096C01F080510191AB
:101AA00001990293116841F44041116012680F934B
:101AB00002F4404201200292022410224FF4A87145
:101AC00004230B9008A8029D08940E940C92CDE973
:101AD0001021CDE91233FFF7BFF800B1FEE703464E
:101AE0000F254FF4805203A82146CDE90443079304
:101AF00003950692FFF7CAFA00B1FEE715B030BDB4
:101B0000003802400070004080B500248AB0FEF723
:101B100059FDFFF7ADFFCDE90544CDE90744584D28
:101B2000019409942B6B574843F004032B632B6BF0
:101B300003F004030193019B02942B6B43F0800399
:101B40002B632B6B03F080030293029B03942B6B9C
:101B500043F001032B632B6B03F001030393039BFF
:101B600004942B6B43F002032B632B6B03F00203F3
:101B7000049322461021049BFFF76AF801224021BA
:101B80004148FFF765F8414B414807944FF4005234
:101B900005A9CDE905230126FEF782FF03271023BF
:101BA00005A938480897CDE905360794FEF778FF70
:101BB000402305A934480897CDE906660593FEF74A
:101BC0006FFF05942B6B334F43F480032B632B6B18
:101BD00003F480032246214605933820059BFEF737
:101BE00041FD3820FEF774FD224621463A20FEF7DB
:101BF00039FD3A20FEF76CFD274B4FF482764FF407
:101C0000007528210A2218469C60C3E903445C61E0
:101C1000C3E908449C62C3E90076C3E90651DA626D
:101C2000FFF7B4FB00B1FEE71C4B1D4D9860024668
:101C30004FF416540C211846C3E90322C3E90622C7
:101C4000C3E900545961FFF74DFE00B1FEE7154DA1
:101C5000DFF83080144F2E46404600221021FEF758
:101C6000F7FFFF2402233A4631460B482C706C7074
:101C7000FFF7EEFB4FF4FA70FEF7D0FCECE700BF85
:101C80000038024000000240000402400000211021
:101C90000008024000300140A800002000010020A0
:101CA00000440040A0000020A4000020FEE700BF88
:101CB00082B00D4B002100915A6C42F480425A646C
:101CC0005A6C02F480420092009A01911A6C42F020
:101CD00080521A641B6C03F080530193019B072010
:101CE00002B0FEF7ADBC00BF0038024070B502681C
:101CF000374B88B000249A42CDE90344CDE905442E
:101D0000079401D008B070BD03F5843301945A6C78
:101D1000304D42F480525A645A6C02F4805201925F
:101D2000019A02941A6B42F001021A631B6B03F0D2
:101D300001030293E023029A039302220123CDE9D7
:101D4000042303A905234FF0030C06462248CDE9DE
:101D500006C3FEF7A5FE2149AC604FF0C0624FF408
:101D600080632846EC60C5E90544C5E907446C6218
:101D7000C5E900122B61FEF7D3FC18BB184C1948BB
:101D800020604FF0806340214FF480626360F5640F
:101D900000232046AE63A160C4E90332C4E90533E1
:101DA000C4E907336362FEF7BBFC70B90022114639
:101DB000B4642320A663FEF755FC2320FEF788FCBD
:101DC00008B070BDFFF772FFD8E7FFF76FFFEDE7D0
:101DD0000030014044010020000002401064024035
:101DE000A80100204064024070B50168174A88B01D
:101DF00000239142CDE90333CDE90533079301D0A8
:101E000008B070BD02F5FA320193116C104841F42C
:101E100000311164116C01F40031019101990293B8
:101E2000136B43F001031363136B03F0010302937D
:101E30000322072303A90C250224029ECDE90354A3
:101E4000CDE90623FEF72CFE08B070BD004400402B
:101E500000000240704700BF704700BFFEF7CCBBD8
:101E60000148FFF7FFBB00BFA80000200148FEF7B4
:101E700041BD00BF440100200148FEF73BBD00BF4B
:101E8000A801002070B5161E07DD0C468D19AFF3B2
:101E9000008004F8010BA542F9D1304670BD00BFA7
:101EA0000C4A08B5136833B118446946884208D80B
:101EB0001060184608BD084B1360184469468842F4
:101EC000F6D900F06BF80C2303604FF0FF3318468F
:101ED00008BD00BF8C000020100200204FF0FF3032
:101EE000704700BF4FF400534B600020704700BFA5
:101EF00001207047002070471049114BD1F888200D
:101F000042F4700210B4C1F888201A680D4C002009
:101F100042F001021A6098601A6822F0847222F47A
:101F200080321A605C601A684FF0006422F48022EC
:101F30001A60D8608C605DF8044B704700ED00E0DB
:101F40000038024010300024DFF834D0002103E0D4
:101F50000C4B5B58435004310B480C4B42189A42CF
:101F6000F6D30B4A02E0002342F8043B094B9A42A5
:101F7000F9D3FFF7C1FF00F017F8FFF7C5FD704771
:101F800000000220B82E0008000000207000002091
:101F9000700000200C020020FEE70000014B1868D2
:101FA000704700BF0C00002070B50D4E0D4CA41BF7
:101FB000A4100025A54209D10B4E0C4C00F004FFE3
:101FC000A41BA4100025A54205D170BD56F82530EC
:101FD00098470135EEE756F8253098470135F2E786
:101FE000B02E0008B02E0008B02E0008B42E000855
:101FF00002440346934200D1704703F8011BF9E7FE
:102000000FB40A4B13B51C6824B1A36913B9204659
:1020100000F04EF805AB049AA1680193204600F049
:1020200055F902B0BDE8104004B070470C00002024
:10203000002310B50446C0E9003383608181436604
:10204000C281C0E904338361194608225C30FFF77E
:10205000CFFF054B6362054BA362054BE362054B63
:102060002462236310BD00BF292800084B28000804
:1020700083280008A7280008014900F085B800BFA0
:10208000812B000870B54A1E682555430E4605F1A0
:10209000740100F097F8044640B10021C0E9001631
:1020A0000C30A06005F16802FFF7A2FF204670BD6A
:1020B000836910B5044633BBC0E912330365124B84
:1020C000124A1B688262984204BF0123836100F0B8
:1020D0001FF86060204600F01BF8A060204600F06A
:1020E00017F80022E06004216068FFF7A1FF0122D9
:1020F0000921A068FFF79CFF02221221E068FFF788
:1021000097FF0123A36110BD102E0008792000085D
:10211000F8B51B4B1E68B369074613B93046FFF785
:10212000C7FF4836D6E90134013B03D5336833B1E4
:102130003668F7E7B4F90C506DB16834F4E7042160
:102140003846FFF79FFF30600028F1D10C233B6039
:1021500004462046F8BD0B4B6566C4E90055A560F2
:10216000C4E90335C4E905550822294604F15C0099
:10217000FFF73EFFC4E90D55C4E91255E9E700BF7A
:10218000102E00080100FFFF2DE9F8438046894624
:1021900000F14804002614B93046BDE8F883D4E9BC
:1021A0000175013F01D52468F5E7AB89012B07D9FB
:1021B000B5F90E30013303D029464046C8470643DF
:1021C0006835EEE770B5CD1C25F0030508350C2DFC
:1021D00038BF0C25002D064601DBA94203D90C238C
:1021E0003360002070BD00F06BFD214A1468214669
:1021F00091B9204C23681BB9304600F005FB2060E4
:102200002946304600F000FB431C24D10C233360E8
:10221000304600F056FDE4E70B685B1B18D40B2B2F
:102220000FD90B60CD50CC18304600F04AFD04F1B8
:102230000B00231D20F00700C31AD3D05A42E250EE
:10224000D0E78C424B6816BF636013600C46EBE727
:102250000C464968CCE7C41C24F00304A04205D016
:10226000211A304600F0D0FA0130CFD02560DBE7EC
:1022700094000020980000209368013B002B10B4CC
:10228000936008DA9469A34201DB0A2903D15DF85F
:10229000044B00F00DBB1368581C10601970084601
:1022A0005DF8044B7047F8B506460F461446D5183E
:1022B000AC4201D1002007E03A4614F8011B304639
:1022C000FFF7DAFF431CF3D1F8BD00002DE9F04F12
:1022D0000C469DB017461D46064618B183690BB9DA
:1022E000FFF7E6FE7C4B9C4258D17468A38918071F
:1022F0005ED52369002B5BD00023099320238DF842
:10230000293030238DF82A3003954FF0010BB84661
:10231000454615F8013B0BB1252B54D1B8EB070A04
:102320000BD053463A4621463046FFF7BCFF0130FA
:1023300000F0C280099B5344099398F80030002BA9
:1023400000F0BA8000234FF0FF32CDE9052304935B
:1023500007938DF853301A93A846052218F8011BED
:102360005E48FEF7BDF8049B78BBD90644BF202227
:102370008DF853201A0744BF2B228DF853202A785A
:102380002A2A2AD0079AA84600200A25414611F891
:10239000013B303B092B69D960B324E0504B9C4290
:1023A00001D1B468A2E74F4B9C4208BFF4689DE797
:1023B0002146304600F0E0FA00289DD04FF0FF3073
:1023C0001DB0BDE8F08FA846A2E7444A801A0BFA78
:1023D00000F0184304904546BEE7039A111D1268A9
:1023E0000391002A01DB079204E0524243F002030A
:1023F0000792049398F800302E2B0ED198F80130F4
:102400002A2B38D1039B1A1D1B680392002BB8BFDF
:102410004FF0FF3308F102080593334D98F8001090
:1024200003222846FEF75CF840B14023401B03FA24
:1024300000F0049B034308F10108049398F800108E
:102440002A488DF82810062208F10107FEF748F8FF
:10245000002837D0264B1BBB039B073323F0070311
:1024600008330393099B4B44099350E705FB023261
:10247000012088468AE7002308F1010805931946E0
:102480000A25404610F8012B303A092A03D9002BBF
:10249000C3D00591C1E705FB012101238046F0E788
:1024A00003AB00932246134B04A93046AFF30080E0
:1024B000B0F1FF3F8146D5D1A3895B063FF57EAFE2
:1024C00009987DE703AB009322460A4B04A93046E6
:1024D00000F088F8ECE700BF342E0008742E0008E6
:1024E000542E0008142E00087A2E00087E2E0008B4
:1024F00000000000A72200082DE9F04791461F4682
:102500008A680B69DDF820809342B8BF1346C9F88A
:10251000003091F8432006460C4612B10133C9F849
:1025200000302368990642BFD9F800300233C9F859
:102530000030256815F0060507D104F1190AE36893
:10254000D9F800209B1AAB4228DC94F8433022686B
:10255000003318BF012392062DD404F143023946FB
:102560003046C047013020D02368E568D9F8002004
:1025700003F00603042B08BFAD1AA36822690CBF41
:1025800025EAE57500259342C4BF9B1AED184FF06C
:1025900000091A344D451AD1002008E001235246A3
:1025A00039463046C047013003D14FF0FF30BDE817
:1025B000F0870135C3E7E1185A1C302081F8430049
:1025C000224494F8451082F843100233C5E70123F2
:1025D000224639463046C0470130E6D009F10109AC
:1025E000D8E700002DE9F04301F1430C0C46097EC9
:1025F00085B06E291746064698460C9A00F0B380BF
:1026000022D8632936D00AD8002900F0B980582989
:1026100000F0838004F1420584F8421032E064291E
:1026200001D06929F6D120681368050603F1040179
:102630002AD51B681160002B03DA2D225B4284F837
:1026400043206F480A2239E0732900F09D8008D8A2
:102650006F2920D07029DDD1236843F02003236047
:1026600003E0752917D07829D4D1782384F8453030
:10267000644855E01368191D1B68116004F1420598
:1026800084F8423001238CE01B68116010F0400F89
:1026900018BF1BB2CFE713682568181D1060280605
:1026A00001D51B6802E06806FBD51B8854486F29DA
:1026B00014BF0A220822002184F843106568A5602F
:1026C000002DC0F29580216821F004012160002BCB
:1026D0003DD1002D40F08E806546082A0BD123683D
:1026E000DB0708D5236962689A42DEBF302305F80C
:1026F000013C05F1FF35ACEB05032361CDF800800B
:102700003B4603AA21463046FFF7F6FE01304DD185
:102710004FF0FF3005B0BDE8F083394884F845102C
:10272000136821681D1D1B6815600A060BD5CA07B2
:1027300044BF41F0200121601BB9226822F0200231
:1027400022601022B7E74D0648BF9BB2EFE765460F
:10275000B3FBF2F102FB1133C35C05F8013D0B46FC
:102760000029F5D1B9E7136825686169181D106063
:1027700028061B6801D5196002E06A06FBD519809E
:10278000002323616546B9E71368191D11601D68B0
:10279000626800212846FDF7A3FE08B1401B606077
:1027A00063682361002384F84330A7E723692A463E
:1027B00039463046C0470130AAD023689B0713D45E
:1027C000E068039B9842B8BF1846A3E701234A4636
:1027D00039463046C04701309AD00135E368039A44
:1027E0009B1AAB42F2DCEBE7002504F11909F5E78F
:1027F000002BACD1037884F8423004F142056CE739
:10280000852E0008962E000838B5064C0023054694
:1028100008462360FFF744FB431C02D1236803B141
:102820002B6038BD0802002010B50C46B1F90E101F
:1028300000F096FA0028ABBF636DA3891B1823F440
:102840008053ACBF6365A38110BD2DE9F0411F46E5
:102850008B89DB0505460C46164605D5022300226A
:10286000B1F90E1000F0B6F9A389B4F90E1023F4F3
:102870008053A38132463B462846BDE8F04100F034
:1028800069B810B50C46B1F90E1000F0A3F9431C5D
:10289000A38915BF606523F4805343F48053A3815B
:1028A00018BFA38110BDB1F90E1000F0D3B800001D
:1028B000F8B50E461446054618B183690BB9FFF703
:1028C000F7FB214B9C422AD16C68A369A360A389C2
:1028D0001A072ED5236963B323692068C01A636978
:1028E000F6B28342374604DC2146284600F048F918
:1028F00028BBA368013BA36023685A1C22601E709A
:1029000063690130834204D0A389DB0719D50A2EFD
:1029100017D12146284600F033F990B10FE00B4B58
:102920009C4201D1AC68D0E7094B9C4208BFEC68DF
:10293000CBE72146284600F01FF80028CCD04FF006
:10294000FF373846F8BD00BF342E0008542E00086B
:10295000142E000838B5074C0546084611460022DB
:1029600022601A46FFF752F8431C02D1236803B1D4
:102970002B6038BD08020020324B70B51D6806463A
:102980000C4625B1AB6913B92846FFF791FB2E4BD6
:102990009C420FD16C68B4F90C309AB215072CD454
:1029A000D00611D40922326043F04003A3814FF0D6
:1029B000FF303EE0254B9C4201D1AC68EBE7244B55
:1029C0009C4208BFEC68E6E7510712D5616B41B144
:1029D00004F14403994202D0304600F073F9002319
:1029E0006363A38923F02403A38100236360236925
:1029F0002360A38943F00803A38123694BB9A3890A
:102A000003F42073B3F5007F03D02146304600F075
:102A100017F9A28912F001030CD00023A3606369A7
:102A20005B42A361236953B9B4F90C3013F0800001
:102A3000BAD170BD920758BF6369A360F2E7002066
:102A4000F7E700BF0C000020342E0008542E0008C9
:102A5000142E000838B5064C0023054608462360AE
:102A6000FFF73CFA431C02D1236803B12B6038BD49
:102A7000080200208A892DE9F041054610070C461E
:102A800058D44B68002B05DC0B6C002B02DC0020BB
:102A9000BDE8F081E66A002EF9D0002312F48052DE
:102AA0002F68216A2B6032D0606DA3895A0705D543
:102AB0006368C01A636B0BB1236CC01A0023024613
:102AC000E66A216A2846B047431CA38906D12968D3
:102AD0001D2948D8294ACA40D60744D50022626039
:102AE000D9042269226004D5421C01D12B6803B9A4
:102AF0006065616B2F600029C9D004F144039942DD
:102B000002D0284600F0DEF800206063C0E7012311
:102B10002846B047411CC8D12B68002BC5D01D2BBF
:102B200001D0162B01D12F60B1E7A38943F04003F8
:102B3000A381ADE70F69002FA9D093070E6808BFE6
:102B40004B690F6018BF0023A6EB07088B60B8F134
:102B5000000F9CDD43463A46216AA66A2846B047E4
:102B6000002806DCA38943F04003A3814FF0FF3027
:102B70008EE70744A8EB0008E9E700BF010040200A
:102B800038B50B6905460C46DBB118B183690BB942
:102B9000FFF78EFA0C4B9C4209D16C68B4F90C30EB
:102BA0007BB121462846BDE83840FFF763BF074B9D
:102BB0009C4201D1AC68F1E7054B9C4208BFEC6830
:102BC000ECE7002038BD00BF342E0008542E00086A
:102BD000142E000838B5074C054608461146002259
:102BE00022601A46FFF786F9431C02D1236803B11D
:102BF0002B6038BD0802002070B50E46B1F90E10EA
:102C0000002996B014461D4607DA00232B60B389CD
:102C10001A0610D44FF480630EE06A4600F0B2F852
:102C20000028F2DB019A02F47042A2F500535A42E6
:102C30005A412A60EEE740230020236016B070BDA1
:102C40008B8973B59D0706460C4607D504F14703EB
:102C5000236023610123636102B070BD01AB6A464A
:102C6000FFF7CAFF009905463046FFF7ABFA48B9AF
:102C7000B4F90C309A05EFD423F0030343F00203B8
:102C8000A381E3E70D4BB362A389206043F0800387
:102C9000A381009B6361019B20615BB1B4F90E10BD
:102CA000304600F081F828B1A38923F0030343F0F4
:102CB0000103A381A3891D43A581CDE779200008E5
:102CC0007047704738B50546002945D051F8043C97
:102CD0000C1F002BB8BFE418FFF7F2FF1F4A136860
:102CE000104633B9636014602846BDE83840FFF7EA
:102CF000E8BFA3420CD921686218934204BF1A6846
:102D00005B68636004BF521822600460ECE71346FE
:102D10005A680AB1A242FAD919685818A0420BD1D0
:102D200020680144581882421960DDD11068526849
:102D30005A6001441960D7E702D90C232B60D3E70E
:102D4000206821188A4204BF11685268626004BF7B
:102D5000091821605C60C7E738BD00BF94000020FF
:102D600038B5074C054608461146002222601A462F
:102D7000FFF788F8431C02D1236803B12B6038BDEC
:102D80000802002038B5074C0023054608461146C6
:102D90002360FFF7A7F8431C02D1236803B12B601F
:102DA00038BD00BF0802002038B5064C0023054698
:102DB00008462360FFF79CF8431C02D1236803B147
:102DC0002B6038BD08020020F8B500BFF8BC08BC75
:102DD0009E467047F8B500BFF8BC08BC9E467047D9
:102DE000000610160006101600000000000000008B
:102DF00001020304060708090000000001020304A1
:102E0000454E432056414C3A202564200A000000DC
:102E10001000002000000000000000000000000082
:102E200000000000000000000000000000000000A2
:102E30000000000000000000000000000000000092
:102E40000000000000000000000000000000000082
:102E50000000000000000000000000000000000072
:102E60000000000000000000000000000000000062
:102E700000000000232D302B2000686C4C0065669C
:102E800067454647003031323334353637383941BB
:102E900042434445460030313233343536373839D1
:082EA0006162636465660000D5
:082EA80068D3FF7F0100000068
:042EB000C501000850
:042EB400A101000870
:102EB80001000000100000000024F40010000020B1
:102EC80000000000342E0008542E0008142E0008BC
:102ED80000000000000000000000000000000000EA
:102EE80000000000000000000000000000000000DA
:102EF80000000000000000000000000000000000CA
:102F080000000000000000000000000000000000B9
:102F180000000000000000000000000000000000A9
:0400000508001F4987
:00000001FF
